{
    "project/contracts/IRVVoting.sol": {
        "IRVVoting": {
            "abi": [
                {
                    "inputs": [],
                    "stateMutability": "nonpayable",
                    "type": "constructor"
                },
                {
                    "inputs": [],
                    "name": "AccessDenied",
                    "type": "error"
                },
                {
                    "inputs": [],
                    "name": "AlreadyVoted",
                    "type": "error"
                },
                {
                    "inputs": [],
                    "name": "InvalidCandidates",
                    "type": "error"
                },
                {
                    "inputs": [],
                    "name": "InvalidMaxChoices",
                    "type": "error"
                },
                {
                    "inputs": [],
                    "name": "InvalidRanking",
                    "type": "error"
                },
                {
                    "inputs": [],
                    "name": "InvalidTime",
                    "type": "error"
                },
                {
                    "inputs": [],
                    "name": "NoVoteFound",
                    "type": "error"
                },
                {
                    "inputs": [],
                    "name": "NoWinnerFound",
                    "type": "error"
                },
                {
                    "inputs": [],
                    "name": "NotAllowedVoter",
                    "type": "error"
                },
                {
                    "inputs": [],
                    "name": "NotOrg",
                    "type": "error"
                },
                {
                    "inputs": [],
                    "name": "NotOwner",
                    "type": "error"
                },
                {
                    "inputs": [],
                    "name": "PollAlreadyFinalized",
                    "type": "error"
                },
                {
                    "inputs": [],
                    "name": "PollDoesNotExist",
                    "type": "error"
                },
                {
                    "inputs": [],
                    "name": "VotingEnded",
                    "type": "error"
                },
                {
                    "inputs": [],
                    "name": "VotingNotEnded",
                    "type": "error"
                },
                {
                    "inputs": [],
                    "name": "VotingNotStarted",
                    "type": "error"
                },
                {
                    "anonymous": false,
                    "inputs": [
                        {
                            "indexed": true,
                            "internalType": "uint256",
                            "name": "pollId",
                            "type": "uint256"
                        },
                        {
                            "indexed": true,
                            "internalType": "address",
                            "name": "creator",
                            "type": "address"
                        },
                        {
                            "indexed": false,
                            "internalType": "string",
                            "name": "title",
                            "type": "string"
                        },
                        {
                            "indexed": false,
                            "internalType": "string[]",
                            "name": "candidateNames",
                            "type": "string[]"
                        },
                        {
                            "indexed": false,
                            "internalType": "uint256",
                            "name": "startTime",
                            "type": "uint256"
                        },
                        {
                            "indexed": false,
                            "internalType": "uint256",
                            "name": "endTime",
                            "type": "uint256"
                        }
                    ],
                    "name": "PollCreated",
                    "type": "event"
                },
                {
                    "anonymous": false,
                    "inputs": [
                        {
                            "indexed": true,
                            "internalType": "uint256",
                            "name": "pollId",
                            "type": "uint256"
                        },
                        {
                            "indexed": false,
                            "internalType": "uint256",
                            "name": "winnerIndex",
                            "type": "uint256"
                        }
                    ],
                    "name": "PollFinalized",
                    "type": "event"
                },
                {
                    "anonymous": false,
                    "inputs": [
                        {
                            "indexed": true,
                            "internalType": "uint256",
                            "name": "pollId",
                            "type": "uint256"
                        },
                        {
                            "indexed": false,
                            "internalType": "uint256",
                            "name": "round",
                            "type": "uint256"
                        },
                        {
                            "indexed": false,
                            "internalType": "uint256[]",
                            "name": "voteCounts",
                            "type": "uint256[]"
                        }
                    ],
                    "name": "RoundTally",
                    "type": "event"
                },
                {
                    "anonymous": false,
                    "inputs": [
                        {
                            "indexed": true,
                            "internalType": "uint256",
                            "name": "pollId",
                            "type": "uint256"
                        },
                        {
                            "indexed": true,
                            "internalType": "address",
                            "name": "voter",
                            "type": "address"
                        },
                        {
                            "indexed": false,
                            "internalType": "uint256",
                            "name": "timestamp",
                            "type": "uint256"
                        }
                    ],
                    "name": "VoteCast",
                    "type": "event"
                },
                {
                    "inputs": [
                        {
                            "internalType": "address",
                            "name": "user",
                            "type": "address"
                        }
                    ],
                    "name": "addAdmin",
                    "outputs": [],
                    "stateMutability": "nonpayable",
                    "type": "function"
                },
                {
                    "inputs": [
                        {
                            "internalType": "address",
                            "name": "user",
                            "type": "address"
                        }
                    ],
                    "name": "addAuditor",
                    "outputs": [],
                    "stateMutability": "nonpayable",
                    "type": "function"
                },
                {
                    "inputs": [
                        {
                            "internalType": "address",
                            "name": "user",
                            "type": "address"
                        }
                    ],
                    "name": "addOrganization",
                    "outputs": [],
                    "stateMutability": "nonpayable",
                    "type": "function"
                },
                {
                    "inputs": [
                        {
                            "internalType": "uint256",
                            "name": "pollId",
                            "type": "uint256"
                        },
                        {
                            "internalType": "address[]",
                            "name": "newVoters",
                            "type": "address[]"
                        }
                    ],
                    "name": "addVotersToWhitelist",
                    "outputs": [],
                    "stateMutability": "nonpayable",
                    "type": "function"
                },
                {
                    "inputs": [
                        {
                            "internalType": "uint256",
                            "name": "pollId",
                            "type": "uint256"
                        },
                        {
                            "internalType": "address",
                            "name": "auditor",
                            "type": "address"
                        }
                    ],
                    "name": "assignAuditorToPoll",
                    "outputs": [],
                    "stateMutability": "nonpayable",
                    "type": "function"
                },
                {
                    "inputs": [
                        {
                            "internalType": "uint256",
                            "name": "pollId",
                            "type": "uint256"
                        }
                    ],
                    "name": "computeWinner",
                    "outputs": [
                        {
                            "internalType": "uint256",
                            "name": "",
                            "type": "uint256"
                        }
                    ],
                    "stateMutability": "view",
                    "type": "function"
                },
                {
                    "inputs": [
                        {
                            "internalType": "string",
                            "name": "_title",
                            "type": "string"
                        },
                        {
                            "internalType": "address[]",
                            "name": "_voters",
                            "type": "address[]"
                        },
                        {
                            "internalType": "string[]",
                            "name": "_names",
                            "type": "string[]"
                        },
                        {
                            "internalType": "address[]",
                            "name": "_auditors",
                            "type": "address[]"
                        },
                        {
                            "internalType": "enum IRVVoting.VoteType",
                            "name": "_voteType",
                            "type": "uint8"
                        },
                        {
                            "internalType": "uint256",
                            "name": "_startTime",
                            "type": "uint256"
                        },
                        {
                            "internalType": "uint256",
                            "name": "_endTime",
                            "type": "uint256"
                        },
                        {
                            "internalType": "uint256",
                            "name": "_maxChoices",
                            "type": "uint256"
                        }
                    ],
                    "name": "createPoll",
                    "outputs": [
                        {
                            "internalType": "uint256",
                            "name": "",
                            "type": "uint256"
                        }
                    ],
                    "stateMutability": "nonpayable",
                    "type": "function"
                },
                {
                    "inputs": [
                        {
                            "internalType": "uint256",
                            "name": "pollId",
                            "type": "uint256"
                        }
                    ],
                    "name": "deletePoll",
                    "outputs": [],
                    "stateMutability": "nonpayable",
                    "type": "function"
                },
                {
                    "inputs": [
                        {
                            "internalType": "uint256",
                            "name": "pollId",
                            "type": "uint256"
                        }
                    ],
                    "name": "finalizePoll",
                    "outputs": [],
                    "stateMutability": "nonpayable",
                    "type": "function"
                },
                {
                    "inputs": [],
                    "name": "getAllPolls",
                    "outputs": [
                        {
                            "internalType": "uint256[]",
                            "name": "",
                            "type": "uint256[]"
                        }
                    ],
                    "stateMutability": "view",
                    "type": "function"
                },
                {
                    "inputs": [
                        {
                            "internalType": "uint256",
                            "name": "pollId",
                            "type": "uint256"
                        }
                    ],
                    "name": "getPollDetails",
                    "outputs": [
                        {
                            "internalType": "string",
                            "name": "title",
                            "type": "string"
                        },
                        {
                            "internalType": "uint256",
                            "name": "startTime",
                            "type": "uint256"
                        },
                        {
                            "internalType": "uint256",
                            "name": "endTime",
                            "type": "uint256"
                        },
                        {
                            "internalType": "uint256",
                            "name": "candidateCount",
                            "type": "uint256"
                        },
                        {
                            "internalType": "uint256",
                            "name": "maxChoices",
                            "type": "uint256"
                        },
                        {
                            "internalType": "string[]",
                            "name": "candidateNames",
                            "type": "string[]"
                        },
                        {
                            "internalType": "address",
                            "name": "creator",
                            "type": "address"
                        },
                        {
                            "internalType": "enum IRVVoting.VoteType",
                            "name": "voteType",
                            "type": "uint8"
                        },
                        {
                            "internalType": "enum IRVVoting.PollState",
                            "name": "currentState",
                            "type": "uint8"
                        }
                    ],
                    "stateMutability": "view",
                    "type": "function"
                },
                {
                    "inputs": [
                        {
                            "internalType": "address",
                            "name": "org",
                            "type": "address"
                        }
                    ],
                    "name": "getPollsByOrg",
                    "outputs": [
                        {
                            "internalType": "uint256[]",
                            "name": "",
                            "type": "uint256[]"
                        }
                    ],
                    "stateMutability": "view",
                    "type": "function"
                },
                {
                    "inputs": [
                        {
                            "internalType": "address",
                            "name": "user",
                            "type": "address"
                        }
                    ],
                    "name": "getUserRole",
                    "outputs": [
                        {
                            "internalType": "string",
                            "name": "",
                            "type": "string"
                        }
                    ],
                    "stateMutability": "view",
                    "type": "function"
                },
                {
                    "inputs": [
                        {
                            "internalType": "uint256",
                            "name": "pollId",
                            "type": "uint256"
                        }
                    ],
                    "name": "getVotes",
                    "outputs": [
                        {
                            "internalType": "uint256[][]",
                            "name": "",
                            "type": "uint256[][]"
                        }
                    ],
                    "stateMutability": "view",
                    "type": "function"
                },
                {
                    "inputs": [
                        {
                            "internalType": "uint256",
                            "name": "pollId",
                            "type": "uint256"
                        },
                        {
                            "internalType": "address",
                            "name": "user",
                            "type": "address"
                        }
                    ],
                    "name": "hasUserVoted",
                    "outputs": [
                        {
                            "internalType": "bool",
                            "name": "",
                            "type": "bool"
                        }
                    ],
                    "stateMutability": "view",
                    "type": "function"
                },
                {
                    "inputs": [
                        {
                            "internalType": "uint256",
                            "name": "",
                            "type": "uint256"
                        },
                        {
                            "internalType": "address",
                            "name": "",
                            "type": "address"
                        }
                    ],
                    "name": "hasVoted",
                    "outputs": [
                        {
                            "internalType": "bool",
                            "name": "",
                            "type": "bool"
                        }
                    ],
                    "stateMutability": "view",
                    "type": "function"
                },
                {
                    "inputs": [
                        {
                            "internalType": "address",
                            "name": "",
                            "type": "address"
                        }
                    ],
                    "name": "isAdmin",
                    "outputs": [
                        {
                            "internalType": "bool",
                            "name": "",
                            "type": "bool"
                        }
                    ],
                    "stateMutability": "view",
                    "type": "function"
                },
                {
                    "inputs": [
                        {
                            "internalType": "uint256",
                            "name": "",
                            "type": "uint256"
                        },
                        {
                            "internalType": "address",
                            "name": "",
                            "type": "address"
                        }
                    ],
                    "name": "isAllowedVoter",
                    "outputs": [
                        {
                            "internalType": "bool",
                            "name": "",
                            "type": "bool"
                        }
                    ],
                    "stateMutability": "view",
                    "type": "function"
                },
                {
                    "inputs": [
                        {
                            "internalType": "address",
                            "name": "",
                            "type": "address"
                        }
                    ],
                    "name": "isAuditor",
                    "outputs": [
                        {
                            "internalType": "bool",
                            "name": "",
                            "type": "bool"
                        }
                    ],
                    "stateMutability": "view",
                    "type": "function"
                },
                {
                    "inputs": [
                        {
                            "internalType": "uint256",
                            "name": "",
                            "type": "uint256"
                        },
                        {
                            "internalType": "address",
                            "name": "",
                            "type": "address"
                        }
                    ],
                    "name": "isAuditorForPoll",
                    "outputs": [
                        {
                            "internalType": "bool",
                            "name": "",
                            "type": "bool"
                        }
                    ],
                    "stateMutability": "view",
                    "type": "function"
                },
                {
                    "inputs": [
                        {
                            "internalType": "address",
                            "name": "",
                            "type": "address"
                        }
                    ],
                    "name": "isOrganization",
                    "outputs": [
                        {
                            "internalType": "bool",
                            "name": "",
                            "type": "bool"
                        }
                    ],
                    "stateMutability": "view",
                    "type": "function"
                },
                {
                    "inputs": [
                        {
                            "internalType": "uint256",
                            "name": "pollId",
                            "type": "uint256"
                        },
                        {
                            "internalType": "address",
                            "name": "user",
                            "type": "address"
                        }
                    ],
                    "name": "isPollAuditor",
                    "outputs": [
                        {
                            "internalType": "bool",
                            "name": "",
                            "type": "bool"
                        }
                    ],
                    "stateMutability": "view",
                    "type": "function"
                },
                {
                    "inputs": [],
                    "name": "owner",
                    "outputs": [
                        {
                            "internalType": "address",
                            "name": "",
                            "type": "address"
                        }
                    ],
                    "stateMutability": "view",
                    "type": "function"
                },
                {
                    "inputs": [],
                    "name": "pollCount",
                    "outputs": [
                        {
                            "internalType": "uint256",
                            "name": "",
                            "type": "uint256"
                        }
                    ],
                    "stateMutability": "view",
                    "type": "function"
                },
                {
                    "inputs": [
                        {
                            "internalType": "uint256",
                            "name": "",
                            "type": "uint256"
                        }
                    ],
                    "name": "pollOrganization",
                    "outputs": [
                        {
                            "internalType": "address",
                            "name": "",
                            "type": "address"
                        }
                    ],
                    "stateMutability": "view",
                    "type": "function"
                },
                {
                    "inputs": [
                        {
                            "internalType": "address",
                            "name": "user",
                            "type": "address"
                        }
                    ],
                    "name": "removeAdmin",
                    "outputs": [],
                    "stateMutability": "nonpayable",
                    "type": "function"
                },
                {
                    "inputs": [
                        {
                            "internalType": "address",
                            "name": "user",
                            "type": "address"
                        }
                    ],
                    "name": "removeAuditor",
                    "outputs": [],
                    "stateMutability": "nonpayable",
                    "type": "function"
                },
                {
                    "inputs": [
                        {
                            "internalType": "uint256",
                            "name": "pollId",
                            "type": "uint256"
                        },
                        {
                            "internalType": "address",
                            "name": "auditor",
                            "type": "address"
                        }
                    ],
                    "name": "removeAuditorFromPoll",
                    "outputs": [],
                    "stateMutability": "nonpayable",
                    "type": "function"
                },
                {
                    "inputs": [
                        {
                            "internalType": "address",
                            "name": "user",
                            "type": "address"
                        }
                    ],
                    "name": "removeOrganization",
                    "outputs": [],
                    "stateMutability": "nonpayable",
                    "type": "function"
                },
                {
                    "inputs": [
                        {
                            "internalType": "uint256",
                            "name": "pollId",
                            "type": "uint256"
                        },
                        {
                            "internalType": "uint256[]",
                            "name": "ranking",
                            "type": "uint256[]"
                        }
                    ],
                    "name": "vote",
                    "outputs": [],
                    "stateMutability": "nonpayable",
                    "type": "function"
                }
            ],
            "evm": {
                "bytecode": {
                    "linkReferences": {},
                    "object": "60808060405234610027575f80546001600160a01b031916331790556125f7908161002c8239f35b5f80fdfe60806040526004361015610011575f80fd5b5f3560e01c8063105a59171461182f5780631785f53c146117ea5780631f35b51d1461157857806324d7806c1461153b578063278208511461150357806332b633fa1461147a5780634385963214611431578063480cd55e1461049357806349b90557146113f457806356597e4f14610d9a57806363bc7a8214610d4a5780636b82685014610d185780636ff2c61014610cb55780637048027514610c5b5780637055d3681461091e578063879cbc30146108c85780638da5cb5b146108a15780639207891d146108845780639a0040e4146107305780639d16e16b14610691578063b1ce8eab14610654578063beba796a146105f9578063c622b70814610542578063d68287df146104dc578063d9c4fb0214610493578063dc296ae114610431578063e26711e0146103e8578063e429cef114610382578063e6116cfd1461031f5763ff98109914610163575f80fd5b3461031b5760208060031936011261031b57600435805f526002825260ff600360405f20015416156103095761019881612242565b60048110156102f5576002036102e3575f546001600160a01b0316331415806102c4575b6102b25790815f52600d9182825260405f20546101d881611e96565b936101e66040519586611e20565b8185526101f282611e96565b9261020485870194601f1901856125a5565b5f5b83811061026c5750505050604051918083019381845251809452604083019360408160051b85010192915f955b8287106102405785850386f35b90919293828061025c600193603f198a82030186528851611f93565b9601920196019592919092610233565b6102aa90825f9897985283885261028f6102898260405f206120c7565b5061243f565b6102998289612137565b526102a48188612137565b50612070565b959495610206565b604051634ca8886760e01b8152600490fd5b50805f526008825260405f20335f52825260ff60405f205416156101bc565b604051633fc30bd160e11b8152600490fd5b634e487b7160e01b5f52602160045260245ffd5b604051638acdc76560e01b8152600490fd5b5f80fd5b3461031b57602036600319011261031b57610338611ead565b5f546001600160a01b03919082163314158061036b575b6102b257165f908152600a60205260409020805460ff19169055005b50335f52600760205260ff60405f2054161561034f565b3461031b57602036600319011261031b5761039b611ead565b5f546001600160a01b0391908216331415806103d1575b6102b257165f908152600a60205260409020805460ff19166001179055005b50335f52600760205260ff60405f205416156103b2565b3461031b57604036600319011261031b57610401611ec3565b6004355f52600460205260405f209060018060a01b03165f52602052602060ff60405f2054166040519015158152f35b3461031b57604036600319011261031b5760043561044d611ec3565b90805f52600260205260ff600360405f2001541615610309575f52600560205260405f209060018060a01b03165f52602052602060ff60405f2054166040519015158152f35b3461031b57604036600319011261031b576104ac611ec3565b6004355f52600860205260405f209060018060a01b03165f52602052602060ff60405f2054166040519015158152f35b3461031b57602036600319011261031b576104f5611ead565b5f546001600160a01b03919082163314158061052b575b6102b257165f908152600960205260409020805460ff19166001179055005b50335f52600760205260ff60405f2054161561050c565b3461031b57604036600319011261031b5760043561055e611ec3565b5f546001600160a01b0391908216331415806105e2575b6102b257825f52600260205260ff600360405f20015416156103095761059a83612242565b60048110156102f5576102b2571690815f52600a60205260ff60405f205416156102b2575f52600860205260405f20905f5260205260405f20600160ff198254161790555f80f35b50335f52600760205260ff60405f20541615610575565b3461031b5761060736611fc6565b5f838152600b60205260409020549192916001600160a01b031633036102b25761063082612242565b60048110156102f5576102b2576106529261064c913691611ed9565b9061214b565b005b3461031b57602036600319011261031b576001600160a01b03610675611ead565b165f526009602052602060ff60405f2054166040519015158152f35b3461031b57604036600319011261031b576004356106ad611ec3565b5f5490916001600160a01b0391821633141580610719575b6102b257805f52600260205260ff600360405f2001541615610309576106ea81612242565b60048110156102f5576102b2575f52600860205260405f2091165f5260205260405f2060ff1981541690555f80f35b50335f52600760205260ff60405f205416156106c5565b3461031b5760208060031936011261031b5760043590815f526002815260ff600360405f200154161561030957815f526002815260405f2090600782019283549161077a83611e96565b946107886040519687611e20565b8386526107a3601f1961079a86611e96565b018388016125a5565b5f5b84811061085357505061082a90600185015495600286015494600487015490855f52600b845260018060a01b0360405f205416966107f36107ed60ff60068c01541698612242565b996121a1565b9961080a6040519b8c6101208091528d0190611f55565b958b015260408a01526060890152608088015286820360a0880152612015565b9160c085015260028110156102f55760e084015260048210156102f55782916101008301520390f35b8061086a61086461087f93856120c7565b506121a1565b610874828a612137565b526102a48189612137565b6107a5565b3461031b575f36600319011261031b576020600154604051908152f35b3461031b575f36600319011261031b575f546040516001600160a01b039091168152602090f35b3461031b57602036600319011261031b57600435805f52600260205260ff600360405f2001541615610309575f52600260205260405f2060ff600382015460081c16156102e35760056020910154604051908152f35b3461031b5761092c36611fc6565b9190815f526020926002845260ff600360405f200154161561030957825f526002845260405f209161095d84612242565b9260048410156102f5576001809403610c4957335f52600a865260ff60405f2054168015610c2d575b6102b2576008810154151580610c0e575b610bfc57845f5260059081875260405f20335f52875260ff60405f205416610bea5760048101548411610bd8576007015483158015610bcf575b610bbd576109de81612555565b5f5b858110610b8657505050845f5280865260405f20335f52865260405f208460ff19825416179055845f526006865260405f2092835493600160401b9485811015610b5057610a329187820181556120c7565b81549060031b9033821b9160018060a01b03901b1916179055855f52600d875260405f209160405193610a6485611dea565b610a6d83611e96565b92610a7b6040519485611e20565b808452898401921b81019136831161031b578991905b838210610b7757505050508252805483811015610b5057610ab69185820181556120c7565b919091610b6457518051926001600160401b038411610b50578311610b505785908254848455808510610b35575b5001905f52845f205f5b838110610b245786867f2acce567deca3aabf56327adbb4524bd5318936eaefa69e3a5208ffda0cfec09604051924284523393a3005b825182820155918601918401610aee565b610b4a90845f5285845f209182019101612114565b87610ae4565b634e487b7160e01b5f52604160045260245ffd5b634e487b7160e01b5f525f60045260245ffd5b81358152908201908201610a91565b80841b8501359083821015610bbd57610b9f8284612137565b51610bbd5787610bb2610bb89385612137565b52612070565b6109e0565b60405163bc54050760e01b8152600490fd5b508084116109d1565b60405163229b829160e21b8152600490fd5b604051637c9a1cf960e01b8152600490fd5b604051631729954960e01b8152600490fd5b50845f526004865260405f20335f52865260ff60405f20541615610997565b50845f52600b865260018060a01b0360405f2054163314610986565b604051637a19ed0560e01b8152600490fd5b3461031b57602036600319011261031b57610c74611ead565b5f546001600160a01b03919082163303610ca357165f908152600760205260409020805460ff19166001179055005b6040516330cd747160e01b8152600490fd5b3461031b57602036600319011261031b57610cce611ead565b5f546001600160a01b039190821633141580610d01575b6102b257165f908152600960205260409020805460ff19169055005b50335f52600760205260ff60405f20541615610ce5565b3461031b57602036600319011261031b576004355f52600b602052602060018060a01b0360405f205416604051908152f35b3461031b57602036600319011261031b576001600160a01b03610d6b611ead565b165f52600c602052610d96610d8260405f2061243f565b604051918291602083526020830190611f93565b0390f35b3461031b57602036600319011261031b575f546001600160a01b0316331415806113dd575b6102b2576004355f52600260205260ff600360405f200154161561030957610de8600435612242565b60048110156102f5576002036102e3576004355f52600260205260405f2060038101549060ff8260081c166113cb576004355f52600d60205260405f205480156113b9575f9060078301549160ff60068501541660028110156102f5576001036110575750610e5682612555565b905f5b818110610ffa57505060405160018152604060208201527f3a06f38fb1e3e13c173b9c70d967d40f45e83b3cd2e02dbcaad578b902a8c27e6004359180610ea36040820186611f93565b0390a25f915f90610eb381612555565b925f925b828410610f725750505050600182115f14610f5b576040516020810191428352600435604083015260408252606082018281106001600160401b03821117610b505760039461010094610f1994610f1393604052519020612587565b90612137565b51935b84600585015561ff001916179101556040519081527fe992bd2ee9f3c9a89bf16dcbadd0eab1f2b2bdedd79ee0bf255b586a5e35f9ac602060043592a2005b60039150610f6b6101009161212a565b5193610f1c565b80610f81858495969894612137565b511115610fb3575050610f948482612137565b5184610f9f8561212a565b52610fab600195612070565b929190610eb7565b909481610fc08285612137565b511480610ff1575b610fd6575b610fab90612070565b94610fe98187610bb2610fab9489612137565b959050610fcd565b50811515610fc8565b611024906004355f52600d6020526110186102898260405f206120c7565b80516110295750612070565b610e59565b6110329061212a565b516110506110496110438388612137565b51612070565b9186612137565b52876102a4565b9361106183612555565b9083956001955f925b60018911806113b1575b156113585761108287612555565b5f805b8881106112aa57506040518a8152604060208201527f3a06f38fb1e3e13c173b9c70d967d40f45e83b3cd2e02dbcaad578b902a8c27e60043591806110cd6040820187611f93565b0390a25f5b898110611242575b505084156110e9575b5061106a565b979890975f19905f906110fb8a612555565b925f5b8b81106111b157505050600181111561119c5760405190426020830152600435604083015260608c8184015282528160808101106001600160401b03608084011117610b5057600192610f136111659284608061116d960160405260208151910120612587565b515b87612137565b528015611188575f19019761118190612070565b96896110e3565b634e487b7160e01b5f52601160045260245ffd5b5061116d6111ab60019261212a565b51611167565b6111bb818b612137565b51156111d0575b6111cb90612070565b6110fe565b9290806111dd8585612137565b51101561120a5750506111f08282612137565b51826111fb8561212a565b526111cb6001935b90506111c2565b9092816112178285612137565b5114611227575b6111cb90611203565b9261123a8185610bb26111cb9489612137565b93905061121e565b61124c8189612137565b5115806112a1575b8061127b575b61126c5761126790612070565b6110d2565b6001965094508b9050806110da565b506112868184612137565b518060011b908082046002149015171561118857821061125a565b50811515611254565b989290979591969a9460049a949a355f52600d6020526112d06102898b60405f206120c7565b9a5f5b8c51811015611342578d6112f36112eb8f8490612137565b518092612137565b5115611308575061130390612070565b6112d3565b61133792979d508a95999b9150610bb261133d94999f9b611043989e96988361133092612137565b9187612137565b91612070565b611085565b50949a50949a9691959790929861133d90612070565b9594509550955015611372575b5050610100600391610f1c565b5f5b828110611382575b50611365565b61138c8183612137565b51156113a05761139b90612070565b611374565b94506101009150600390508561137c565b508315611074565b604051633cf0cfff60e11b8152600490fd5b604051633c8aa87160e01b8152600490fd5b50335f52600760205260ff60405f20541615610dbf565b3461031b57602036600319011261031b576001600160a01b03611415611ead565b165f52600a602052602060ff60405f2054166040519015158152f35b3461031b57604036600319011261031b5761144a611ec3565b6004355f52600560205260405f209060018060a01b03165f52602052602060ff60405f2054166040519015158152f35b3461031b575f36600319011261031b576040518060035480825282602080930160035f527fc2575a0e9e593c00f959f8c92f12db2869c3395a3b0502d05e2516446f71f85b925f5b858282106114ed575050506114d992500383611e20565b610d96604051928284938452830190611f93565b85548452600195860195889550930192016114c2565b3461031b57602036600319011261031b57610d96611527611522611ead565b61248b565b604051918291602083526020830190611f55565b3461031b57602036600319011261031b576001600160a01b0361155c611ead565b165f526007602052602060ff60405f2054166040519015158152f35b3461031b5760208060031936011261031b57600435805f526002825260039060ff8260405f2001541615610309575f818152600b845260409020546001600160a01b0390811633036117d8576115cd82612242565b60048110156102f5576102b257815f52600b845260405f2054165f52600c835260405f20915f5b8354808210156117ce578361160983876120c7565b905490851b1c14611623575061161e90612070565b6115f4565b929391925f19918183019182116111885761165161164461166993866120c7565b905490871b1c91856120c7565b90919082549060031b91821b915f19901b1916179055565b815480156117b257019061169061168083836120c7565b8154905f199060031b1b19169055565b555b5f5b8154808210156117c657836116a88361207e565b905490851b1c146116c257506116bd90612070565b611694565b9192915f1991818301918211611188576116516116e16116ed9361207e565b905490871b1c9161207e565b825480156117b257016117026116808261207e565b82555b5f52600b825260405f206bffffffffffffffffffffffff60a01b81541690556002825260405f2090611736826123f7565b5f60019181838501558160028501558301555f60048301555f60058301555f6006830155600782018054905f81558161178f575b505050600801908154905f83558161177e57005b610652925f525f2090810190612114565b5f52835f20908101905b8181101561176a57806117ac84926123f7565b01611799565b634e487b7160e01b5f52603160045260245ffd5b505090611705565b5050909150611692565b6040516359019d3f60e01b8152600490fd5b3461031b57602036600319011261031b57611803611ead565b5f546001600160a01b03919082163303610ca357165f908152600760205260409020805460ff19169055005b3461031b5761010036600319011261031b576004356001600160401b03811161031b57611860903690600401611e41565b6024356001600160401b03811161031b5761187f903690600401611f37565b906044356001600160401b03811161031b573660238201121561031b5780600401356118aa81611e96565b916118b86040519384611e20565b8183526024602084019260051b8201019036821161031b5760248101925b828410611dbb57505050506064356001600160401b03811161031b57611900903690600401611f37565b6002608435101561031b57335f52600960205260ff60405f2054161580611da7575b6102b25760e435158015611d9b575b610bd857815115611d895760c43560a4351015611d77576001549061195582612070565b600155815f52600260205260405f2094600b60205260405f20336bffffffffffffffffffffffff60a01b825416179055335f52600c60205260405f208054600160401b811015610b5057611651816119b393600188940181556120c7565b600354600160401b811015610b5057836116518260016119d6940160035561207e565b84516001600160401b038111610b50576119f087546120dc565b601f8111611d47575b50806020601f8211600114611ce4575f91611cd9575b508160011b915f199060031b1c19161786555b60a435600187015560c4356002870155600160ff196003880154161760038701556006860160ff1981541660ff60843516179055608435155f14611cc35760e43560048701555b8051611cb3575b505f5b8351811015611bd557611a868185612137565b5160405190611a9482611dea565b81526007870154600160401b811015610b5057806001611abd920160078a0155600789016120c7565b919091610b6457518051906001600160401b038211610b5057611ae083546120dc565b601f8111611b9a575b50602090601f8311600114611b2f57611b1f949392915f9183611b24575b50508160011b915f199060031b1c1916179055612070565b611a73565b015190508a80611b07565b90835f5260205f20915f5b601f1985168110611b825750918391600193611b1f979695601f19811610611b6a575b505050811b019055612070565b01515f1960f88460031b161c191690558a8080611b5d565b91926020600181928685015181550194019201611b3a565b611bc590845f5260205f20601f850160051c81019160208610611bcb575b601f0160051c0190612114565b89611ae9565b9091508190611bb8565b5090925f5b8251811015611c48576001600160a01b039081611bf78286612137565b51165f52600a60205260ff60405f205416156102b257611c4391865f52600860205260405f2090611c288387612137565b51165f5260205260405f20600160ff19825416179055612070565b611bda565b60208583817ff430a5d69e2a8bf7e182935f788c8eebcba079a3de38be32477b82ca394eb730611c9489611c8760405195608087526080870190611f55565b9085820388870152612015565b9260a435604082015260c43560608201528033940390a3604051908152f35b611cbd908361214b565b85611a70565b600160843503611a695760016004870155611a69565b905086015188611a0f565b9150875f5260205f205f925b601f1983168410611d2f576001935082601f19811610611d17575b5050811b018655611a22565b8801515f1960f88460031b161c191690558880611d0b565b88810151825560209384019360019092019101611cf0565b611d7190885f5260205f20601f840160051c81019160208510611bcb57601f0160051c0190612114565b876119f9565b6040516337bf561360e11b8152600490fd5b60405163084d3c6d60e11b8152600490fd5b50815160e43511611931565b505f546001600160a01b0316331415611922565b83356001600160401b03811161031b57602091611ddf839260243691870101611e41565b8152019301926118d6565b602081019081106001600160401b03821117610b5057604052565b604081019081106001600160401b03821117610b5057604052565b90601f801991011681019081106001600160401b03821117610b5057604052565b81601f8201121561031b578035906001600160401b038211610b505760405192611e75601f8401601f191660200185611e20565b8284526020838301011161031b57815f926020809301838601378301015290565b6001600160401b038111610b505760051b60200190565b600435906001600160a01b038216820361031b57565b602435906001600160a01b038216820361031b57565b9291611ee482611e96565b91611ef26040519384611e20565b829481845260208094019160051b810192831161031b57905b828210611f185750505050565b81356001600160a01b038116810361031b578152908301908301611f0b565b9080601f8301121561031b57816020611f5293359101611ed9565b90565b91908251928382525f5b848110611f7f575050825f602080949584010152601f8019910116010190565b602081830181015184830182015201611f5f565b9081518082526020808093019301915f5b828110611fb2575050505090565b835185529381019392810192600101611fa4565b604060031982011261031b57600435916024356001600160401b039283821161031b578060238301121561031b57816004013593841161031b5760248460051b8301011161031b576024019190565b908082519081815260208091019281808460051b8301019501935f915b8483106120425750505050505090565b9091929394958480612060600193601f198682030187528a51611f55565b9801930193019194939290612032565b5f1981146111885760010190565b6003548110156120b35760035f527fc2575a0e9e593c00f959f8c92f12db2869c3395a3b0502d05e2516446f71f85b01905f90565b634e487b7160e01b5f52603260045260245ffd5b80548210156120b3575f5260205f2001905f90565b90600182811c9216801561210a575b60208310146120f657565b634e487b7160e01b5f52602260045260245ffd5b91607f16916120eb565b81811061211f575050565b5f8155600101612114565b8051156120b35760200190565b80518210156120b35760209160051b010190565b905f5b815181101561219c575f838152600460209081526040918290206121979392916001600160a01b036121808588612137565b51165f52525f20600160ff19825416179055612070565b61214e565b505050565b9060405191825f8254926121b4846120dc565b9081845260019485811690815f1461221f57506001146121df575b50506121dd92500383611e20565b565b909391505f52602090815f20935f915b8183106122075750506121dd93508201015f806121cf565b855488840185015294850194879450918301916121ef565b9150506121dd94506020925060ff191682840152151560051b8201015f806121cf565b5f9081526020906002825260409081812082519061014082018281106001600160401b038211176123e3578452612278816121a1565b8252600194858201549281810193845260028301549580820196875260038401549360ff85161515606084015260ff608084019560081c1615158552600481015460a0840152600581015460c084015260ff60068201541660028110156123cf5760e08401526007810180546122ed81611e96565b916122fa85519384611e20565b818352895285892089908c888086015b8585106123a55750505050505090600891610100850152019051908193849281835491828152019289528189209189905b8c8383106123835750505050506101209291612358910384611e20565b01525161237a575142106123745750514210611f525750600290565b91505090565b50505050600390565b84546001600160a01b031686528896509481019493840193919091019061233b565b90829189516123b381611dea565b6123bc866121a1565b8152815201920192019190888e9161230a565b634e487b7160e01b88526021600452602488fd5b634e487b7160e01b84526041600452602484fd5b61240181546120dc565b908161240b575050565b81601f5f931160011461241c575055565b90808391825261243b601f60208420940160051c840160018501612114565b5555565b906040519182815491828252602092838301915f52835f20935f905b828210612471575050506121dd92500383611e20565b85548452600195860195889550938101939091019061245b565b5f546001600160a01b039182169116811461253357805f52600960205260ff60405f20541661250a575f52600a60205260ff60405f2054166124e7576040516124d381611e05565b60048152632ab9b2b960e11b602082015290565b6040516124f381611e05565b600781526620bab234ba37b960c91b602082015290565b5060405161251781611e05565b600c81526b27b933b0b734bd30ba34b7b760a11b602082015290565b5060405161254081611e05565b600581526427bbb732b960d91b602082015290565b9061255f82611e96565b61256c6040519182611e20565b828152809261257d601f1991611e96565b0190602036910137565b8115612591570690565b634e487b7160e01b5f52601260045260245ffd5b5f5b8281106125b357505050565b6060828201526020016125a756fea264697066735822122043ceda380411aa9173f5aba6f35a1730a87df10eb3de0d14695064368369bc3164736f6c63430008140033",
                    "opcodes": "PUSH1 0x80 DUP1 PUSH1 0x40 MSTORE CALLVALUE PUSH2 0x27 JUMPI PUSH0 DUP1 SLOAD PUSH1 0x1 PUSH1 0x1 PUSH1 0xA0 SHL SUB NOT AND CALLER OR SWAP1 SSTORE PUSH2 0x25F7 SWAP1 DUP2 PUSH2 0x2C DUP3 CODECOPY RETURN JUMPDEST PUSH0 DUP1 REVERT INVALID PUSH1 0x80 PUSH1 0x40 MSTORE PUSH1 0x4 CALLDATASIZE LT ISZERO PUSH2 0x11 JUMPI PUSH0 DUP1 REVERT JUMPDEST PUSH0 CALLDATALOAD PUSH1 0xE0 SHR DUP1 PUSH4 0x105A5917 EQ PUSH2 0x182F JUMPI DUP1 PUSH4 0x1785F53C EQ PUSH2 0x17EA JUMPI DUP1 PUSH4 0x1F35B51D EQ PUSH2 0x1578 JUMPI DUP1 PUSH4 0x24D7806C EQ PUSH2 0x153B JUMPI DUP1 PUSH4 0x27820851 EQ PUSH2 0x1503 JUMPI DUP1 PUSH4 0x32B633FA EQ PUSH2 0x147A JUMPI DUP1 PUSH4 0x43859632 EQ PUSH2 0x1431 JUMPI DUP1 PUSH4 0x480CD55E EQ PUSH2 0x493 JUMPI DUP1 PUSH4 0x49B90557 EQ PUSH2 0x13F4 JUMPI DUP1 PUSH4 0x56597E4F EQ PUSH2 0xD9A JUMPI DUP1 PUSH4 0x63BC7A82 EQ PUSH2 0xD4A JUMPI DUP1 PUSH4 0x6B826850 EQ PUSH2 0xD18 JUMPI DUP1 PUSH4 0x6FF2C610 EQ PUSH2 0xCB5 JUMPI DUP1 PUSH4 0x70480275 EQ PUSH2 0xC5B JUMPI DUP1 PUSH4 0x7055D368 EQ PUSH2 0x91E JUMPI DUP1 PUSH4 0x879CBC30 EQ PUSH2 0x8C8 JUMPI DUP1 PUSH4 0x8DA5CB5B EQ PUSH2 0x8A1 JUMPI DUP1 PUSH4 0x9207891D EQ PUSH2 0x884 JUMPI DUP1 PUSH4 0x9A0040E4 EQ PUSH2 0x730 JUMPI DUP1 PUSH4 0x9D16E16B EQ PUSH2 0x691 JUMPI DUP1 PUSH4 0xB1CE8EAB EQ PUSH2 0x654 JUMPI DUP1 PUSH4 0xBEBA796A EQ PUSH2 0x5F9 JUMPI DUP1 PUSH4 0xC622B708 EQ PUSH2 0x542 JUMPI DUP1 PUSH4 0xD68287DF EQ PUSH2 0x4DC JUMPI DUP1 PUSH4 0xD9C4FB02 EQ PUSH2 0x493 JUMPI DUP1 PUSH4 0xDC296AE1 EQ PUSH2 0x431 JUMPI DUP1 PUSH4 0xE26711E0 EQ PUSH2 0x3E8 JUMPI DUP1 PUSH4 0xE429CEF1 EQ PUSH2 0x382 JUMPI DUP1 PUSH4 0xE6116CFD EQ PUSH2 0x31F JUMPI PUSH4 0xFF981099 EQ PUSH2 0x163 JUMPI PUSH0 DUP1 REVERT JUMPDEST CALLVALUE PUSH2 0x31B JUMPI PUSH1 0x20 DUP1 PUSH1 0x3 NOT CALLDATASIZE ADD SLT PUSH2 0x31B JUMPI PUSH1 0x4 CALLDATALOAD DUP1 PUSH0 MSTORE PUSH1 0x2 DUP3 MSTORE PUSH1 0xFF PUSH1 0x3 PUSH1 0x40 PUSH0 KECCAK256 ADD SLOAD AND ISZERO PUSH2 0x309 JUMPI PUSH2 0x198 DUP2 PUSH2 0x2242 JUMP JUMPDEST PUSH1 0x4 DUP2 LT ISZERO PUSH2 0x2F5 JUMPI PUSH1 0x2 SUB PUSH2 0x2E3 JUMPI PUSH0 SLOAD PUSH1 0x1 PUSH1 0x1 PUSH1 0xA0 SHL SUB AND CALLER EQ ISZERO DUP1 PUSH2 0x2C4 JUMPI JUMPDEST PUSH2 0x2B2 JUMPI SWAP1 DUP2 PUSH0 MSTORE PUSH1 0xD SWAP2 DUP3 DUP3 MSTORE PUSH1 0x40 PUSH0 KECCAK256 SLOAD PUSH2 0x1D8 DUP2 PUSH2 0x1E96 JUMP JUMPDEST SWAP4 PUSH2 0x1E6 PUSH1 0x40 MLOAD SWAP6 DUP7 PUSH2 0x1E20 JUMP JUMPDEST DUP2 DUP6 MSTORE PUSH2 0x1F2 DUP3 PUSH2 0x1E96 JUMP JUMPDEST SWAP3 PUSH2 0x204 DUP6 DUP8 ADD SWAP5 PUSH1 0x1F NOT ADD DUP6 PUSH2 0x25A5 JUMP JUMPDEST PUSH0 JUMPDEST DUP4 DUP2 LT PUSH2 0x26C JUMPI POP POP POP POP PUSH1 0x40 MLOAD SWAP2 DUP1 DUP4 ADD SWAP4 DUP2 DUP5 MSTORE MLOAD DUP1 SWAP5 MSTORE PUSH1 0x40 DUP4 ADD SWAP4 PUSH1 0x40 DUP2 PUSH1 0x5 SHL DUP6 ADD ADD SWAP3 SWAP2 PUSH0 SWAP6 JUMPDEST DUP3 DUP8 LT PUSH2 0x240 JUMPI DUP6 DUP6 SUB DUP7 RETURN JUMPDEST SWAP1 SWAP2 SWAP3 SWAP4 DUP3 DUP1 PUSH2 0x25C PUSH1 0x1 SWAP4 PUSH1 0x3F NOT DUP11 DUP3 SUB ADD DUP7 MSTORE DUP9 MLOAD PUSH2 0x1F93 JUMP JUMPDEST SWAP7 ADD SWAP3 ADD SWAP7 ADD SWAP6 SWAP3 SWAP2 SWAP1 SWAP3 PUSH2 0x233 JUMP JUMPDEST PUSH2 0x2AA SWAP1 DUP3 PUSH0 SWAP9 SWAP8 SWAP9 MSTORE DUP4 DUP9 MSTORE PUSH2 0x28F PUSH2 0x289 DUP3 PUSH1 0x40 PUSH0 KECCAK256 PUSH2 0x20C7 JUMP JUMPDEST POP PUSH2 0x243F JUMP JUMPDEST PUSH2 0x299 DUP3 DUP10 PUSH2 0x2137 JUMP JUMPDEST MSTORE PUSH2 0x2A4 DUP2 DUP9 PUSH2 0x2137 JUMP JUMPDEST POP PUSH2 0x2070 JUMP JUMPDEST SWAP6 SWAP5 SWAP6 PUSH2 0x206 JUMP JUMPDEST PUSH1 0x40 MLOAD PUSH4 0x4CA88867 PUSH1 0xE0 SHL DUP2 MSTORE PUSH1 0x4 SWAP1 REVERT JUMPDEST POP DUP1 PUSH0 MSTORE PUSH1 0x8 DUP3 MSTORE PUSH1 0x40 PUSH0 KECCAK256 CALLER PUSH0 MSTORE DUP3 MSTORE PUSH1 0xFF PUSH1 0x40 PUSH0 KECCAK256 SLOAD AND ISZERO PUSH2 0x1BC JUMP JUMPDEST PUSH1 0x40 MLOAD PUSH4 0x3FC30BD1 PUSH1 0xE1 SHL DUP2 MSTORE PUSH1 0x4 SWAP1 REVERT JUMPDEST PUSH4 0x4E487B71 PUSH1 0xE0 SHL PUSH0 MSTORE PUSH1 0x21 PUSH1 0x4 MSTORE PUSH1 0x24 PUSH0 REVERT JUMPDEST PUSH1 0x40 MLOAD PUSH4 0x8ACDC765 PUSH1 0xE0 SHL DUP2 MSTORE PUSH1 0x4 SWAP1 REVERT JUMPDEST PUSH0 DUP1 REVERT JUMPDEST CALLVALUE PUSH2 0x31B JUMPI PUSH1 0x20 CALLDATASIZE PUSH1 0x3 NOT ADD SLT PUSH2 0x31B JUMPI PUSH2 0x338 PUSH2 0x1EAD JUMP JUMPDEST PUSH0 SLOAD PUSH1 0x1 PUSH1 0x1 PUSH1 0xA0 SHL SUB SWAP2 SWAP1 DUP3 AND CALLER EQ ISZERO DUP1 PUSH2 0x36B JUMPI JUMPDEST PUSH2 0x2B2 JUMPI AND PUSH0 SWAP1 DUP2 MSTORE PUSH1 0xA PUSH1 0x20 MSTORE PUSH1 0x40 SWAP1 KECCAK256 DUP1 SLOAD PUSH1 0xFF NOT AND SWAP1 SSTORE STOP JUMPDEST POP CALLER PUSH0 MSTORE PUSH1 0x7 PUSH1 0x20 MSTORE PUSH1 0xFF PUSH1 0x40 PUSH0 KECCAK256 SLOAD AND ISZERO PUSH2 0x34F JUMP JUMPDEST CALLVALUE PUSH2 0x31B JUMPI PUSH1 0x20 CALLDATASIZE PUSH1 0x3 NOT ADD SLT PUSH2 0x31B JUMPI PUSH2 0x39B PUSH2 0x1EAD JUMP JUMPDEST PUSH0 SLOAD PUSH1 0x1 PUSH1 0x1 PUSH1 0xA0 SHL SUB SWAP2 SWAP1 DUP3 AND CALLER EQ ISZERO DUP1 PUSH2 0x3D1 JUMPI JUMPDEST PUSH2 0x2B2 JUMPI AND PUSH0 SWAP1 DUP2 MSTORE PUSH1 0xA PUSH1 0x20 MSTORE PUSH1 0x40 SWAP1 KECCAK256 DUP1 SLOAD PUSH1 0xFF NOT AND PUSH1 0x1 OR SWAP1 SSTORE STOP JUMPDEST POP CALLER PUSH0 MSTORE PUSH1 0x7 PUSH1 0x20 MSTORE PUSH1 0xFF PUSH1 0x40 PUSH0 KECCAK256 SLOAD AND ISZERO PUSH2 0x3B2 JUMP JUMPDEST CALLVALUE PUSH2 0x31B JUMPI PUSH1 0x40 CALLDATASIZE PUSH1 0x3 NOT ADD SLT PUSH2 0x31B JUMPI PUSH2 0x401 PUSH2 0x1EC3 JUMP JUMPDEST PUSH1 0x4 CALLDATALOAD PUSH0 MSTORE PUSH1 0x4 PUSH1 0x20 MSTORE PUSH1 0x40 PUSH0 KECCAK256 SWAP1 PUSH1 0x1 DUP1 PUSH1 0xA0 SHL SUB AND PUSH0 MSTORE PUSH1 0x20 MSTORE PUSH1 0x20 PUSH1 0xFF PUSH1 0x40 PUSH0 KECCAK256 SLOAD AND PUSH1 0x40 MLOAD SWAP1 ISZERO ISZERO DUP2 MSTORE RETURN JUMPDEST CALLVALUE PUSH2 0x31B JUMPI PUSH1 0x40 CALLDATASIZE PUSH1 0x3 NOT ADD SLT PUSH2 0x31B JUMPI PUSH1 0x4 CALLDATALOAD PUSH2 0x44D PUSH2 0x1EC3 JUMP JUMPDEST SWAP1 DUP1 PUSH0 MSTORE PUSH1 0x2 PUSH1 0x20 MSTORE PUSH1 0xFF PUSH1 0x3 PUSH1 0x40 PUSH0 KECCAK256 ADD SLOAD AND ISZERO PUSH2 0x309 JUMPI PUSH0 MSTORE PUSH1 0x5 PUSH1 0x20 MSTORE PUSH1 0x40 PUSH0 KECCAK256 SWAP1 PUSH1 0x1 DUP1 PUSH1 0xA0 SHL SUB AND PUSH0 MSTORE PUSH1 0x20 MSTORE PUSH1 0x20 PUSH1 0xFF PUSH1 0x40 PUSH0 KECCAK256 SLOAD AND PUSH1 0x40 MLOAD SWAP1 ISZERO ISZERO DUP2 MSTORE RETURN JUMPDEST CALLVALUE PUSH2 0x31B JUMPI PUSH1 0x40 CALLDATASIZE PUSH1 0x3 NOT ADD SLT PUSH2 0x31B JUMPI PUSH2 0x4AC PUSH2 0x1EC3 JUMP JUMPDEST PUSH1 0x4 CALLDATALOAD PUSH0 MSTORE PUSH1 0x8 PUSH1 0x20 MSTORE PUSH1 0x40 PUSH0 KECCAK256 SWAP1 PUSH1 0x1 DUP1 PUSH1 0xA0 SHL SUB AND PUSH0 MSTORE PUSH1 0x20 MSTORE PUSH1 0x20 PUSH1 0xFF PUSH1 0x40 PUSH0 KECCAK256 SLOAD AND PUSH1 0x40 MLOAD SWAP1 ISZERO ISZERO DUP2 MSTORE RETURN JUMPDEST CALLVALUE PUSH2 0x31B JUMPI PUSH1 0x20 CALLDATASIZE PUSH1 0x3 NOT ADD SLT PUSH2 0x31B JUMPI PUSH2 0x4F5 PUSH2 0x1EAD JUMP JUMPDEST PUSH0 SLOAD PUSH1 0x1 PUSH1 0x1 PUSH1 0xA0 SHL SUB SWAP2 SWAP1 DUP3 AND CALLER EQ ISZERO DUP1 PUSH2 0x52B JUMPI JUMPDEST PUSH2 0x2B2 JUMPI AND PUSH0 SWAP1 DUP2 MSTORE PUSH1 0x9 PUSH1 0x20 MSTORE PUSH1 0x40 SWAP1 KECCAK256 DUP1 SLOAD PUSH1 0xFF NOT AND PUSH1 0x1 OR SWAP1 SSTORE STOP JUMPDEST POP CALLER PUSH0 MSTORE PUSH1 0x7 PUSH1 0x20 MSTORE PUSH1 0xFF PUSH1 0x40 PUSH0 KECCAK256 SLOAD AND ISZERO PUSH2 0x50C JUMP JUMPDEST CALLVALUE PUSH2 0x31B JUMPI PUSH1 0x40 CALLDATASIZE PUSH1 0x3 NOT ADD SLT PUSH2 0x31B JUMPI PUSH1 0x4 CALLDATALOAD PUSH2 0x55E PUSH2 0x1EC3 JUMP JUMPDEST PUSH0 SLOAD PUSH1 0x1 PUSH1 0x1 PUSH1 0xA0 SHL SUB SWAP2 SWAP1 DUP3 AND CALLER EQ ISZERO DUP1 PUSH2 0x5E2 JUMPI JUMPDEST PUSH2 0x2B2 JUMPI DUP3 PUSH0 MSTORE PUSH1 0x2 PUSH1 0x20 MSTORE PUSH1 0xFF PUSH1 0x3 PUSH1 0x40 PUSH0 KECCAK256 ADD SLOAD AND ISZERO PUSH2 0x309 JUMPI PUSH2 0x59A DUP4 PUSH2 0x2242 JUMP JUMPDEST PUSH1 0x4 DUP2 LT ISZERO PUSH2 0x2F5 JUMPI PUSH2 0x2B2 JUMPI AND SWAP1 DUP2 PUSH0 MSTORE PUSH1 0xA PUSH1 0x20 MSTORE PUSH1 0xFF PUSH1 0x40 PUSH0 KECCAK256 SLOAD AND ISZERO PUSH2 0x2B2 JUMPI PUSH0 MSTORE PUSH1 0x8 PUSH1 0x20 MSTORE PUSH1 0x40 PUSH0 KECCAK256 SWAP1 PUSH0 MSTORE PUSH1 0x20 MSTORE PUSH1 0x40 PUSH0 KECCAK256 PUSH1 0x1 PUSH1 0xFF NOT DUP3 SLOAD AND OR SWAP1 SSTORE PUSH0 DUP1 RETURN JUMPDEST POP CALLER PUSH0 MSTORE PUSH1 0x7 PUSH1 0x20 MSTORE PUSH1 0xFF PUSH1 0x40 PUSH0 KECCAK256 SLOAD AND ISZERO PUSH2 0x575 JUMP JUMPDEST CALLVALUE PUSH2 0x31B JUMPI PUSH2 0x607 CALLDATASIZE PUSH2 0x1FC6 JUMP JUMPDEST PUSH0 DUP4 DUP2 MSTORE PUSH1 0xB PUSH1 0x20 MSTORE PUSH1 0x40 SWAP1 KECCAK256 SLOAD SWAP2 SWAP3 SWAP2 PUSH1 0x1 PUSH1 0x1 PUSH1 0xA0 SHL SUB AND CALLER SUB PUSH2 0x2B2 JUMPI PUSH2 0x630 DUP3 PUSH2 0x2242 JUMP JUMPDEST PUSH1 0x4 DUP2 LT ISZERO PUSH2 0x2F5 JUMPI PUSH2 0x2B2 JUMPI PUSH2 0x652 SWAP3 PUSH2 0x64C SWAP2 CALLDATASIZE SWAP2 PUSH2 0x1ED9 JUMP JUMPDEST SWAP1 PUSH2 0x214B JUMP JUMPDEST STOP JUMPDEST CALLVALUE PUSH2 0x31B JUMPI PUSH1 0x20 CALLDATASIZE PUSH1 0x3 NOT ADD SLT PUSH2 0x31B JUMPI PUSH1 0x1 PUSH1 0x1 PUSH1 0xA0 SHL SUB PUSH2 0x675 PUSH2 0x1EAD JUMP JUMPDEST AND PUSH0 MSTORE PUSH1 0x9 PUSH1 0x20 MSTORE PUSH1 0x20 PUSH1 0xFF PUSH1 0x40 PUSH0 KECCAK256 SLOAD AND PUSH1 0x40 MLOAD SWAP1 ISZERO ISZERO DUP2 MSTORE RETURN JUMPDEST CALLVALUE PUSH2 0x31B JUMPI PUSH1 0x40 CALLDATASIZE PUSH1 0x3 NOT ADD SLT PUSH2 0x31B JUMPI PUSH1 0x4 CALLDATALOAD PUSH2 0x6AD PUSH2 0x1EC3 JUMP JUMPDEST PUSH0 SLOAD SWAP1 SWAP2 PUSH1 0x1 PUSH1 0x1 PUSH1 0xA0 SHL SUB SWAP2 DUP3 AND CALLER EQ ISZERO DUP1 PUSH2 0x719 JUMPI JUMPDEST PUSH2 0x2B2 JUMPI DUP1 PUSH0 MSTORE PUSH1 0x2 PUSH1 0x20 MSTORE PUSH1 0xFF PUSH1 0x3 PUSH1 0x40 PUSH0 KECCAK256 ADD SLOAD AND ISZERO PUSH2 0x309 JUMPI PUSH2 0x6EA DUP2 PUSH2 0x2242 JUMP JUMPDEST PUSH1 0x4 DUP2 LT ISZERO PUSH2 0x2F5 JUMPI PUSH2 0x2B2 JUMPI PUSH0 MSTORE PUSH1 0x8 PUSH1 0x20 MSTORE PUSH1 0x40 PUSH0 KECCAK256 SWAP2 AND PUSH0 MSTORE PUSH1 0x20 MSTORE PUSH1 0x40 PUSH0 KECCAK256 PUSH1 0xFF NOT DUP2 SLOAD AND SWAP1 SSTORE PUSH0 DUP1 RETURN JUMPDEST POP CALLER PUSH0 MSTORE PUSH1 0x7 PUSH1 0x20 MSTORE PUSH1 0xFF PUSH1 0x40 PUSH0 KECCAK256 SLOAD AND ISZERO PUSH2 0x6C5 JUMP JUMPDEST CALLVALUE PUSH2 0x31B JUMPI PUSH1 0x20 DUP1 PUSH1 0x3 NOT CALLDATASIZE ADD SLT PUSH2 0x31B JUMPI PUSH1 0x4 CALLDATALOAD SWAP1 DUP2 PUSH0 MSTORE PUSH1 0x2 DUP2 MSTORE PUSH1 0xFF PUSH1 0x3 PUSH1 0x40 PUSH0 KECCAK256 ADD SLOAD AND ISZERO PUSH2 0x309 JUMPI DUP2 PUSH0 MSTORE PUSH1 0x2 DUP2 MSTORE PUSH1 0x40 PUSH0 KECCAK256 SWAP1 PUSH1 0x7 DUP3 ADD SWAP3 DUP4 SLOAD SWAP2 PUSH2 0x77A DUP4 PUSH2 0x1E96 JUMP JUMPDEST SWAP5 PUSH2 0x788 PUSH1 0x40 MLOAD SWAP7 DUP8 PUSH2 0x1E20 JUMP JUMPDEST DUP4 DUP7 MSTORE PUSH2 0x7A3 PUSH1 0x1F NOT PUSH2 0x79A DUP7 PUSH2 0x1E96 JUMP JUMPDEST ADD DUP4 DUP9 ADD PUSH2 0x25A5 JUMP JUMPDEST PUSH0 JUMPDEST DUP5 DUP2 LT PUSH2 0x853 JUMPI POP POP PUSH2 0x82A SWAP1 PUSH1 0x1 DUP6 ADD SLOAD SWAP6 PUSH1 0x2 DUP7 ADD SLOAD SWAP5 PUSH1 0x4 DUP8 ADD SLOAD SWAP1 DUP6 PUSH0 MSTORE PUSH1 0xB DUP5 MSTORE PUSH1 0x1 DUP1 PUSH1 0xA0 SHL SUB PUSH1 0x40 PUSH0 KECCAK256 SLOAD AND SWAP7 PUSH2 0x7F3 PUSH2 0x7ED PUSH1 0xFF PUSH1 0x6 DUP13 ADD SLOAD AND SWAP9 PUSH2 0x2242 JUMP JUMPDEST SWAP10 PUSH2 0x21A1 JUMP JUMPDEST SWAP10 PUSH2 0x80A PUSH1 0x40 MLOAD SWAP12 DUP13 PUSH2 0x120 DUP1 SWAP2 MSTORE DUP14 ADD SWAP1 PUSH2 0x1F55 JUMP JUMPDEST SWAP6 DUP12 ADD MSTORE PUSH1 0x40 DUP11 ADD MSTORE PUSH1 0x60 DUP10 ADD MSTORE PUSH1 0x80 DUP9 ADD MSTORE DUP7 DUP3 SUB PUSH1 0xA0 DUP9 ADD MSTORE PUSH2 0x2015 JUMP JUMPDEST SWAP2 PUSH1 0xC0 DUP6 ADD MSTORE PUSH1 0x2 DUP2 LT ISZERO PUSH2 0x2F5 JUMPI PUSH1 0xE0 DUP5 ADD MSTORE PUSH1 0x4 DUP3 LT ISZERO PUSH2 0x2F5 JUMPI DUP3 SWAP2 PUSH2 0x100 DUP4 ADD MSTORE SUB SWAP1 RETURN JUMPDEST DUP1 PUSH2 0x86A PUSH2 0x864 PUSH2 0x87F SWAP4 DUP6 PUSH2 0x20C7 JUMP JUMPDEST POP PUSH2 0x21A1 JUMP JUMPDEST PUSH2 0x874 DUP3 DUP11 PUSH2 0x2137 JUMP JUMPDEST MSTORE PUSH2 0x2A4 DUP2 DUP10 PUSH2 0x2137 JUMP JUMPDEST PUSH2 0x7A5 JUMP JUMPDEST CALLVALUE PUSH2 0x31B JUMPI PUSH0 CALLDATASIZE PUSH1 0x3 NOT ADD SLT PUSH2 0x31B JUMPI PUSH1 0x20 PUSH1 0x1 SLOAD PUSH1 0x40 MLOAD SWAP1 DUP2 MSTORE RETURN JUMPDEST CALLVALUE PUSH2 0x31B JUMPI PUSH0 CALLDATASIZE PUSH1 0x3 NOT ADD SLT PUSH2 0x31B JUMPI PUSH0 SLOAD PUSH1 0x40 MLOAD PUSH1 0x1 PUSH1 0x1 PUSH1 0xA0 SHL SUB SWAP1 SWAP2 AND DUP2 MSTORE PUSH1 0x20 SWAP1 RETURN JUMPDEST CALLVALUE PUSH2 0x31B JUMPI PUSH1 0x20 CALLDATASIZE PUSH1 0x3 NOT ADD SLT PUSH2 0x31B JUMPI PUSH1 0x4 CALLDATALOAD DUP1 PUSH0 MSTORE PUSH1 0x2 PUSH1 0x20 MSTORE PUSH1 0xFF PUSH1 0x3 PUSH1 0x40 PUSH0 KECCAK256 ADD SLOAD AND ISZERO PUSH2 0x309 JUMPI PUSH0 MSTORE PUSH1 0x2 PUSH1 0x20 MSTORE PUSH1 0x40 PUSH0 KECCAK256 PUSH1 0xFF PUSH1 0x3 DUP3 ADD SLOAD PUSH1 0x8 SHR AND ISZERO PUSH2 0x2E3 JUMPI PUSH1 0x5 PUSH1 0x20 SWAP2 ADD SLOAD PUSH1 0x40 MLOAD SWAP1 DUP2 MSTORE RETURN JUMPDEST CALLVALUE PUSH2 0x31B JUMPI PUSH2 0x92C CALLDATASIZE PUSH2 0x1FC6 JUMP JUMPDEST SWAP2 SWAP1 DUP2 PUSH0 MSTORE PUSH1 0x20 SWAP3 PUSH1 0x2 DUP5 MSTORE PUSH1 0xFF PUSH1 0x3 PUSH1 0x40 PUSH0 KECCAK256 ADD SLOAD AND ISZERO PUSH2 0x309 JUMPI DUP3 PUSH0 MSTORE PUSH1 0x2 DUP5 MSTORE PUSH1 0x40 PUSH0 KECCAK256 SWAP2 PUSH2 0x95D DUP5 PUSH2 0x2242 JUMP JUMPDEST SWAP3 PUSH1 0x4 DUP5 LT ISZERO PUSH2 0x2F5 JUMPI PUSH1 0x1 DUP1 SWAP5 SUB PUSH2 0xC49 JUMPI CALLER PUSH0 MSTORE PUSH1 0xA DUP7 MSTORE PUSH1 0xFF PUSH1 0x40 PUSH0 KECCAK256 SLOAD AND DUP1 ISZERO PUSH2 0xC2D JUMPI JUMPDEST PUSH2 0x2B2 JUMPI PUSH1 0x8 DUP2 ADD SLOAD ISZERO ISZERO DUP1 PUSH2 0xC0E JUMPI JUMPDEST PUSH2 0xBFC JUMPI DUP5 PUSH0 MSTORE PUSH1 0x5 SWAP1 DUP2 DUP8 MSTORE PUSH1 0x40 PUSH0 KECCAK256 CALLER PUSH0 MSTORE DUP8 MSTORE PUSH1 0xFF PUSH1 0x40 PUSH0 KECCAK256 SLOAD AND PUSH2 0xBEA JUMPI PUSH1 0x4 DUP2 ADD SLOAD DUP5 GT PUSH2 0xBD8 JUMPI PUSH1 0x7 ADD SLOAD DUP4 ISZERO DUP1 ISZERO PUSH2 0xBCF JUMPI JUMPDEST PUSH2 0xBBD JUMPI PUSH2 0x9DE DUP2 PUSH2 0x2555 JUMP JUMPDEST PUSH0 JUMPDEST DUP6 DUP2 LT PUSH2 0xB86 JUMPI POP POP POP DUP5 PUSH0 MSTORE DUP1 DUP7 MSTORE PUSH1 0x40 PUSH0 KECCAK256 CALLER PUSH0 MSTORE DUP7 MSTORE PUSH1 0x40 PUSH0 KECCAK256 DUP5 PUSH1 0xFF NOT DUP3 SLOAD AND OR SWAP1 SSTORE DUP5 PUSH0 MSTORE PUSH1 0x6 DUP7 MSTORE PUSH1 0x40 PUSH0 KECCAK256 SWAP3 DUP4 SLOAD SWAP4 PUSH1 0x1 PUSH1 0x40 SHL SWAP5 DUP6 DUP2 LT ISZERO PUSH2 0xB50 JUMPI PUSH2 0xA32 SWAP2 DUP8 DUP3 ADD DUP2 SSTORE PUSH2 0x20C7 JUMP JUMPDEST DUP2 SLOAD SWAP1 PUSH1 0x3 SHL SWAP1 CALLER DUP3 SHL SWAP2 PUSH1 0x1 DUP1 PUSH1 0xA0 SHL SUB SWAP1 SHL NOT AND OR SWAP1 SSTORE DUP6 PUSH0 MSTORE PUSH1 0xD DUP8 MSTORE PUSH1 0x40 PUSH0 KECCAK256 SWAP2 PUSH1 0x40 MLOAD SWAP4 PUSH2 0xA64 DUP6 PUSH2 0x1DEA JUMP JUMPDEST PUSH2 0xA6D DUP4 PUSH2 0x1E96 JUMP JUMPDEST SWAP3 PUSH2 0xA7B PUSH1 0x40 MLOAD SWAP5 DUP6 PUSH2 0x1E20 JUMP JUMPDEST DUP1 DUP5 MSTORE DUP10 DUP5 ADD SWAP3 SHL DUP2 ADD SWAP2 CALLDATASIZE DUP4 GT PUSH2 0x31B JUMPI DUP10 SWAP2 SWAP1 JUMPDEST DUP4 DUP3 LT PUSH2 0xB77 JUMPI POP POP POP POP DUP3 MSTORE DUP1 SLOAD DUP4 DUP2 LT ISZERO PUSH2 0xB50 JUMPI PUSH2 0xAB6 SWAP2 DUP6 DUP3 ADD DUP2 SSTORE PUSH2 0x20C7 JUMP JUMPDEST SWAP2 SWAP1 SWAP2 PUSH2 0xB64 JUMPI MLOAD DUP1 MLOAD SWAP3 PUSH1 0x1 PUSH1 0x1 PUSH1 0x40 SHL SUB DUP5 GT PUSH2 0xB50 JUMPI DUP4 GT PUSH2 0xB50 JUMPI DUP6 SWAP1 DUP3 SLOAD DUP5 DUP5 SSTORE DUP1 DUP6 LT PUSH2 0xB35 JUMPI JUMPDEST POP ADD SWAP1 PUSH0 MSTORE DUP5 PUSH0 KECCAK256 PUSH0 JUMPDEST DUP4 DUP2 LT PUSH2 0xB24 JUMPI DUP7 DUP7 PUSH32 0x2ACCE567DECA3AABF56327ADBB4524BD5318936EAEFA69E3A5208FFDA0CFEC09 PUSH1 0x40 MLOAD SWAP3 TIMESTAMP DUP5 MSTORE CALLER SWAP4 LOG3 STOP JUMPDEST DUP3 MLOAD DUP3 DUP3 ADD SSTORE SWAP2 DUP7 ADD SWAP2 DUP5 ADD PUSH2 0xAEE JUMP JUMPDEST PUSH2 0xB4A SWAP1 DUP5 PUSH0 MSTORE DUP6 DUP5 PUSH0 KECCAK256 SWAP2 DUP3 ADD SWAP2 ADD PUSH2 0x2114 JUMP JUMPDEST DUP8 PUSH2 0xAE4 JUMP JUMPDEST PUSH4 0x4E487B71 PUSH1 0xE0 SHL PUSH0 MSTORE PUSH1 0x41 PUSH1 0x4 MSTORE PUSH1 0x24 PUSH0 REVERT JUMPDEST PUSH4 0x4E487B71 PUSH1 0xE0 SHL PUSH0 MSTORE PUSH0 PUSH1 0x4 MSTORE PUSH1 0x24 PUSH0 REVERT JUMPDEST DUP2 CALLDATALOAD DUP2 MSTORE SWAP1 DUP3 ADD SWAP1 DUP3 ADD PUSH2 0xA91 JUMP JUMPDEST DUP1 DUP5 SHL DUP6 ADD CALLDATALOAD SWAP1 DUP4 DUP3 LT ISZERO PUSH2 0xBBD JUMPI PUSH2 0xB9F DUP3 DUP5 PUSH2 0x2137 JUMP JUMPDEST MLOAD PUSH2 0xBBD JUMPI DUP8 PUSH2 0xBB2 PUSH2 0xBB8 SWAP4 DUP6 PUSH2 0x2137 JUMP JUMPDEST MSTORE PUSH2 0x2070 JUMP JUMPDEST PUSH2 0x9E0 JUMP JUMPDEST PUSH1 0x40 MLOAD PUSH4 0xBC540507 PUSH1 0xE0 SHL DUP2 MSTORE PUSH1 0x4 SWAP1 REVERT JUMPDEST POP DUP1 DUP5 GT PUSH2 0x9D1 JUMP JUMPDEST PUSH1 0x40 MLOAD PUSH4 0x229B8291 PUSH1 0xE2 SHL DUP2 MSTORE PUSH1 0x4 SWAP1 REVERT JUMPDEST PUSH1 0x40 MLOAD PUSH4 0x7C9A1CF9 PUSH1 0xE0 SHL DUP2 MSTORE PUSH1 0x4 SWAP1 REVERT JUMPDEST PUSH1 0x40 MLOAD PUSH4 0x17299549 PUSH1 0xE0 SHL DUP2 MSTORE PUSH1 0x4 SWAP1 REVERT JUMPDEST POP DUP5 PUSH0 MSTORE PUSH1 0x4 DUP7 MSTORE PUSH1 0x40 PUSH0 KECCAK256 CALLER PUSH0 MSTORE DUP7 MSTORE PUSH1 0xFF PUSH1 0x40 PUSH0 KECCAK256 SLOAD AND ISZERO PUSH2 0x997 JUMP JUMPDEST POP DUP5 PUSH0 MSTORE PUSH1 0xB DUP7 MSTORE PUSH1 0x1 DUP1 PUSH1 0xA0 SHL SUB PUSH1 0x40 PUSH0 KECCAK256 SLOAD AND CALLER EQ PUSH2 0x986 JUMP JUMPDEST PUSH1 0x40 MLOAD PUSH4 0x7A19ED05 PUSH1 0xE0 SHL DUP2 MSTORE PUSH1 0x4 SWAP1 REVERT JUMPDEST CALLVALUE PUSH2 0x31B JUMPI PUSH1 0x20 CALLDATASIZE PUSH1 0x3 NOT ADD SLT PUSH2 0x31B JUMPI PUSH2 0xC74 PUSH2 0x1EAD JUMP JUMPDEST PUSH0 SLOAD PUSH1 0x1 PUSH1 0x1 PUSH1 0xA0 SHL SUB SWAP2 SWAP1 DUP3 AND CALLER SUB PUSH2 0xCA3 JUMPI AND PUSH0 SWAP1 DUP2 MSTORE PUSH1 0x7 PUSH1 0x20 MSTORE PUSH1 0x40 SWAP1 KECCAK256 DUP1 SLOAD PUSH1 0xFF NOT AND PUSH1 0x1 OR SWAP1 SSTORE STOP JUMPDEST PUSH1 0x40 MLOAD PUSH4 0x30CD7471 PUSH1 0xE0 SHL DUP2 MSTORE PUSH1 0x4 SWAP1 REVERT JUMPDEST CALLVALUE PUSH2 0x31B JUMPI PUSH1 0x20 CALLDATASIZE PUSH1 0x3 NOT ADD SLT PUSH2 0x31B JUMPI PUSH2 0xCCE PUSH2 0x1EAD JUMP JUMPDEST PUSH0 SLOAD PUSH1 0x1 PUSH1 0x1 PUSH1 0xA0 SHL SUB SWAP2 SWAP1 DUP3 AND CALLER EQ ISZERO DUP1 PUSH2 0xD01 JUMPI JUMPDEST PUSH2 0x2B2 JUMPI AND PUSH0 SWAP1 DUP2 MSTORE PUSH1 0x9 PUSH1 0x20 MSTORE PUSH1 0x40 SWAP1 KECCAK256 DUP1 SLOAD PUSH1 0xFF NOT AND SWAP1 SSTORE STOP JUMPDEST POP CALLER PUSH0 MSTORE PUSH1 0x7 PUSH1 0x20 MSTORE PUSH1 0xFF PUSH1 0x40 PUSH0 KECCAK256 SLOAD AND ISZERO PUSH2 0xCE5 JUMP JUMPDEST CALLVALUE PUSH2 0x31B JUMPI PUSH1 0x20 CALLDATASIZE PUSH1 0x3 NOT ADD SLT PUSH2 0x31B JUMPI PUSH1 0x4 CALLDATALOAD PUSH0 MSTORE PUSH1 0xB PUSH1 0x20 MSTORE PUSH1 0x20 PUSH1 0x1 DUP1 PUSH1 0xA0 SHL SUB PUSH1 0x40 PUSH0 KECCAK256 SLOAD AND PUSH1 0x40 MLOAD SWAP1 DUP2 MSTORE RETURN JUMPDEST CALLVALUE PUSH2 0x31B JUMPI PUSH1 0x20 CALLDATASIZE PUSH1 0x3 NOT ADD SLT PUSH2 0x31B JUMPI PUSH1 0x1 PUSH1 0x1 PUSH1 0xA0 SHL SUB PUSH2 0xD6B PUSH2 0x1EAD JUMP JUMPDEST AND PUSH0 MSTORE PUSH1 0xC PUSH1 0x20 MSTORE PUSH2 0xD96 PUSH2 0xD82 PUSH1 0x40 PUSH0 KECCAK256 PUSH2 0x243F JUMP JUMPDEST PUSH1 0x40 MLOAD SWAP2 DUP3 SWAP2 PUSH1 0x20 DUP4 MSTORE PUSH1 0x20 DUP4 ADD SWAP1 PUSH2 0x1F93 JUMP JUMPDEST SUB SWAP1 RETURN JUMPDEST CALLVALUE PUSH2 0x31B JUMPI PUSH1 0x20 CALLDATASIZE PUSH1 0x3 NOT ADD SLT PUSH2 0x31B JUMPI PUSH0 SLOAD PUSH1 0x1 PUSH1 0x1 PUSH1 0xA0 SHL SUB AND CALLER EQ ISZERO DUP1 PUSH2 0x13DD JUMPI JUMPDEST PUSH2 0x2B2 JUMPI PUSH1 0x4 CALLDATALOAD PUSH0 MSTORE PUSH1 0x2 PUSH1 0x20 MSTORE PUSH1 0xFF PUSH1 0x3 PUSH1 0x40 PUSH0 KECCAK256 ADD SLOAD AND ISZERO PUSH2 0x309 JUMPI PUSH2 0xDE8 PUSH1 0x4 CALLDATALOAD PUSH2 0x2242 JUMP JUMPDEST PUSH1 0x4 DUP2 LT ISZERO PUSH2 0x2F5 JUMPI PUSH1 0x2 SUB PUSH2 0x2E3 JUMPI PUSH1 0x4 CALLDATALOAD PUSH0 MSTORE PUSH1 0x2 PUSH1 0x20 MSTORE PUSH1 0x40 PUSH0 KECCAK256 PUSH1 0x3 DUP2 ADD SLOAD SWAP1 PUSH1 0xFF DUP3 PUSH1 0x8 SHR AND PUSH2 0x13CB JUMPI PUSH1 0x4 CALLDATALOAD PUSH0 MSTORE PUSH1 0xD PUSH1 0x20 MSTORE PUSH1 0x40 PUSH0 KECCAK256 SLOAD DUP1 ISZERO PUSH2 0x13B9 JUMPI PUSH0 SWAP1 PUSH1 0x7 DUP4 ADD SLOAD SWAP2 PUSH1 0xFF PUSH1 0x6 DUP6 ADD SLOAD AND PUSH1 0x2 DUP2 LT ISZERO PUSH2 0x2F5 JUMPI PUSH1 0x1 SUB PUSH2 0x1057 JUMPI POP PUSH2 0xE56 DUP3 PUSH2 0x2555 JUMP JUMPDEST SWAP1 PUSH0 JUMPDEST DUP2 DUP2 LT PUSH2 0xFFA JUMPI POP POP PUSH1 0x40 MLOAD PUSH1 0x1 DUP2 MSTORE PUSH1 0x40 PUSH1 0x20 DUP3 ADD MSTORE PUSH32 0x3A06F38FB1E3E13C173B9C70D967D40F45E83B3CD2E02DBCAAD578B902A8C27E PUSH1 0x4 CALLDATALOAD SWAP2 DUP1 PUSH2 0xEA3 PUSH1 0x40 DUP3 ADD DUP7 PUSH2 0x1F93 JUMP JUMPDEST SUB SWAP1 LOG2 PUSH0 SWAP2 PUSH0 SWAP1 PUSH2 0xEB3 DUP2 PUSH2 0x2555 JUMP JUMPDEST SWAP3 PUSH0 SWAP3 JUMPDEST DUP3 DUP5 LT PUSH2 0xF72 JUMPI POP POP POP POP PUSH1 0x1 DUP3 GT PUSH0 EQ PUSH2 0xF5B JUMPI PUSH1 0x40 MLOAD PUSH1 0x20 DUP2 ADD SWAP2 TIMESTAMP DUP4 MSTORE PUSH1 0x4 CALLDATALOAD PUSH1 0x40 DUP4 ADD MSTORE PUSH1 0x40 DUP3 MSTORE PUSH1 0x60 DUP3 ADD DUP3 DUP2 LT PUSH1 0x1 PUSH1 0x1 PUSH1 0x40 SHL SUB DUP3 GT OR PUSH2 0xB50 JUMPI PUSH1 0x3 SWAP5 PUSH2 0x100 SWAP5 PUSH2 0xF19 SWAP5 PUSH2 0xF13 SWAP4 PUSH1 0x40 MSTORE MLOAD SWAP1 KECCAK256 PUSH2 0x2587 JUMP JUMPDEST SWAP1 PUSH2 0x2137 JUMP JUMPDEST MLOAD SWAP4 JUMPDEST DUP5 PUSH1 0x5 DUP6 ADD SSTORE PUSH2 0xFF00 NOT AND OR SWAP2 ADD SSTORE PUSH1 0x40 MLOAD SWAP1 DUP2 MSTORE PUSH32 0xE992BD2EE9F3C9A89BF16DCBADD0EAB1F2B2BDEDD79EE0BF255B586A5E35F9AC PUSH1 0x20 PUSH1 0x4 CALLDATALOAD SWAP3 LOG2 STOP JUMPDEST PUSH1 0x3 SWAP2 POP PUSH2 0xF6B PUSH2 0x100 SWAP2 PUSH2 0x212A JUMP JUMPDEST MLOAD SWAP4 PUSH2 0xF1C JUMP JUMPDEST DUP1 PUSH2 0xF81 DUP6 DUP5 SWAP6 SWAP7 SWAP9 SWAP5 PUSH2 0x2137 JUMP JUMPDEST MLOAD GT ISZERO PUSH2 0xFB3 JUMPI POP POP PUSH2 0xF94 DUP5 DUP3 PUSH2 0x2137 JUMP JUMPDEST MLOAD DUP5 PUSH2 0xF9F DUP6 PUSH2 0x212A JUMP JUMPDEST MSTORE PUSH2 0xFAB PUSH1 0x1 SWAP6 PUSH2 0x2070 JUMP JUMPDEST SWAP3 SWAP2 SWAP1 PUSH2 0xEB7 JUMP JUMPDEST SWAP1 SWAP5 DUP2 PUSH2 0xFC0 DUP3 DUP6 PUSH2 0x2137 JUMP JUMPDEST MLOAD EQ DUP1 PUSH2 0xFF1 JUMPI JUMPDEST PUSH2 0xFD6 JUMPI JUMPDEST PUSH2 0xFAB SWAP1 PUSH2 0x2070 JUMP JUMPDEST SWAP5 PUSH2 0xFE9 DUP2 DUP8 PUSH2 0xBB2 PUSH2 0xFAB SWAP5 DUP10 PUSH2 0x2137 JUMP JUMPDEST SWAP6 SWAP1 POP PUSH2 0xFCD JUMP JUMPDEST POP DUP2 ISZERO ISZERO PUSH2 0xFC8 JUMP JUMPDEST PUSH2 0x1024 SWAP1 PUSH1 0x4 CALLDATALOAD PUSH0 MSTORE PUSH1 0xD PUSH1 0x20 MSTORE PUSH2 0x1018 PUSH2 0x289 DUP3 PUSH1 0x40 PUSH0 KECCAK256 PUSH2 0x20C7 JUMP JUMPDEST DUP1 MLOAD PUSH2 0x1029 JUMPI POP PUSH2 0x2070 JUMP JUMPDEST PUSH2 0xE59 JUMP JUMPDEST PUSH2 0x1032 SWAP1 PUSH2 0x212A JUMP JUMPDEST MLOAD PUSH2 0x1050 PUSH2 0x1049 PUSH2 0x1043 DUP4 DUP9 PUSH2 0x2137 JUMP JUMPDEST MLOAD PUSH2 0x2070 JUMP JUMPDEST SWAP2 DUP7 PUSH2 0x2137 JUMP JUMPDEST MSTORE DUP8 PUSH2 0x2A4 JUMP JUMPDEST SWAP4 PUSH2 0x1061 DUP4 PUSH2 0x2555 JUMP JUMPDEST SWAP1 DUP4 SWAP6 PUSH1 0x1 SWAP6 PUSH0 SWAP3 JUMPDEST PUSH1 0x1 DUP10 GT DUP1 PUSH2 0x13B1 JUMPI JUMPDEST ISZERO PUSH2 0x1358 JUMPI PUSH2 0x1082 DUP8 PUSH2 0x2555 JUMP JUMPDEST PUSH0 DUP1 JUMPDEST DUP9 DUP2 LT PUSH2 0x12AA JUMPI POP PUSH1 0x40 MLOAD DUP11 DUP2 MSTORE PUSH1 0x40 PUSH1 0x20 DUP3 ADD MSTORE PUSH32 0x3A06F38FB1E3E13C173B9C70D967D40F45E83B3CD2E02DBCAAD578B902A8C27E PUSH1 0x4 CALLDATALOAD SWAP2 DUP1 PUSH2 0x10CD PUSH1 0x40 DUP3 ADD DUP8 PUSH2 0x1F93 JUMP JUMPDEST SUB SWAP1 LOG2 PUSH0 JUMPDEST DUP10 DUP2 LT PUSH2 0x1242 JUMPI JUMPDEST POP POP DUP5 ISZERO PUSH2 0x10E9 JUMPI JUMPDEST POP PUSH2 0x106A JUMP JUMPDEST SWAP8 SWAP9 SWAP1 SWAP8 PUSH0 NOT SWAP1 PUSH0 SWAP1 PUSH2 0x10FB DUP11 PUSH2 0x2555 JUMP JUMPDEST SWAP3 PUSH0 JUMPDEST DUP12 DUP2 LT PUSH2 0x11B1 JUMPI POP POP POP PUSH1 0x1 DUP2 GT ISZERO PUSH2 0x119C JUMPI PUSH1 0x40 MLOAD SWAP1 TIMESTAMP PUSH1 0x20 DUP4 ADD MSTORE PUSH1 0x4 CALLDATALOAD PUSH1 0x40 DUP4 ADD MSTORE PUSH1 0x60 DUP13 DUP2 DUP5 ADD MSTORE DUP3 MSTORE DUP2 PUSH1 0x80 DUP2 ADD LT PUSH1 0x1 PUSH1 0x1 PUSH1 0x40 SHL SUB PUSH1 0x80 DUP5 ADD GT OR PUSH2 0xB50 JUMPI PUSH1 0x1 SWAP3 PUSH2 0xF13 PUSH2 0x1165 SWAP3 DUP5 PUSH1 0x80 PUSH2 0x116D SWAP7 ADD PUSH1 0x40 MSTORE PUSH1 0x20 DUP2 MLOAD SWAP2 ADD KECCAK256 PUSH2 0x2587 JUMP JUMPDEST MLOAD JUMPDEST DUP8 PUSH2 0x2137 JUMP JUMPDEST MSTORE DUP1 ISZERO PUSH2 0x1188 JUMPI PUSH0 NOT ADD SWAP8 PUSH2 0x1181 SWAP1 PUSH2 0x2070 JUMP JUMPDEST SWAP7 DUP10 PUSH2 0x10E3 JUMP JUMPDEST PUSH4 0x4E487B71 PUSH1 0xE0 SHL PUSH0 MSTORE PUSH1 0x11 PUSH1 0x4 MSTORE PUSH1 0x24 PUSH0 REVERT JUMPDEST POP PUSH2 0x116D PUSH2 0x11AB PUSH1 0x1 SWAP3 PUSH2 0x212A JUMP JUMPDEST MLOAD PUSH2 0x1167 JUMP JUMPDEST PUSH2 0x11BB DUP2 DUP12 PUSH2 0x2137 JUMP JUMPDEST MLOAD ISZERO PUSH2 0x11D0 JUMPI JUMPDEST PUSH2 0x11CB SWAP1 PUSH2 0x2070 JUMP JUMPDEST PUSH2 0x10FE JUMP JUMPDEST SWAP3 SWAP1 DUP1 PUSH2 0x11DD DUP6 DUP6 PUSH2 0x2137 JUMP JUMPDEST MLOAD LT ISZERO PUSH2 0x120A JUMPI POP POP PUSH2 0x11F0 DUP3 DUP3 PUSH2 0x2137 JUMP JUMPDEST MLOAD DUP3 PUSH2 0x11FB DUP6 PUSH2 0x212A JUMP JUMPDEST MSTORE PUSH2 0x11CB PUSH1 0x1 SWAP4 JUMPDEST SWAP1 POP PUSH2 0x11C2 JUMP JUMPDEST SWAP1 SWAP3 DUP2 PUSH2 0x1217 DUP3 DUP6 PUSH2 0x2137 JUMP JUMPDEST MLOAD EQ PUSH2 0x1227 JUMPI JUMPDEST PUSH2 0x11CB SWAP1 PUSH2 0x1203 JUMP JUMPDEST SWAP3 PUSH2 0x123A DUP2 DUP6 PUSH2 0xBB2 PUSH2 0x11CB SWAP5 DUP10 PUSH2 0x2137 JUMP JUMPDEST SWAP4 SWAP1 POP PUSH2 0x121E JUMP JUMPDEST PUSH2 0x124C DUP2 DUP10 PUSH2 0x2137 JUMP JUMPDEST MLOAD ISZERO DUP1 PUSH2 0x12A1 JUMPI JUMPDEST DUP1 PUSH2 0x127B JUMPI JUMPDEST PUSH2 0x126C JUMPI PUSH2 0x1267 SWAP1 PUSH2 0x2070 JUMP JUMPDEST PUSH2 0x10D2 JUMP JUMPDEST PUSH1 0x1 SWAP7 POP SWAP5 POP DUP12 SWAP1 POP DUP1 PUSH2 0x10DA JUMP JUMPDEST POP PUSH2 0x1286 DUP2 DUP5 PUSH2 0x2137 JUMP JUMPDEST MLOAD DUP1 PUSH1 0x1 SHL SWAP1 DUP1 DUP3 DIV PUSH1 0x2 EQ SWAP1 ISZERO OR ISZERO PUSH2 0x1188 JUMPI DUP3 LT PUSH2 0x125A JUMP JUMPDEST POP DUP2 ISZERO ISZERO PUSH2 0x1254 JUMP JUMPDEST SWAP9 SWAP3 SWAP1 SWAP8 SWAP6 SWAP2 SWAP7 SWAP11 SWAP5 PUSH1 0x4 SWAP11 SWAP5 SWAP11 CALLDATALOAD PUSH0 MSTORE PUSH1 0xD PUSH1 0x20 MSTORE PUSH2 0x12D0 PUSH2 0x289 DUP12 PUSH1 0x40 PUSH0 KECCAK256 PUSH2 0x20C7 JUMP JUMPDEST SWAP11 PUSH0 JUMPDEST DUP13 MLOAD DUP2 LT ISZERO PUSH2 0x1342 JUMPI DUP14 PUSH2 0x12F3 PUSH2 0x12EB DUP16 DUP5 SWAP1 PUSH2 0x2137 JUMP JUMPDEST MLOAD DUP1 SWAP3 PUSH2 0x2137 JUMP JUMPDEST MLOAD ISZERO PUSH2 0x1308 JUMPI POP PUSH2 0x1303 SWAP1 PUSH2 0x2070 JUMP JUMPDEST PUSH2 0x12D3 JUMP JUMPDEST PUSH2 0x1337 SWAP3 SWAP8 SWAP14 POP DUP11 SWAP6 SWAP10 SWAP12 SWAP2 POP PUSH2 0xBB2 PUSH2 0x133D SWAP5 SWAP10 SWAP16 SWAP12 PUSH2 0x1043 SWAP9 SWAP15 SWAP7 SWAP9 DUP4 PUSH2 0x1330 SWAP3 PUSH2 0x2137 JUMP JUMPDEST SWAP2 DUP8 PUSH2 0x2137 JUMP JUMPDEST SWAP2 PUSH2 0x2070 JUMP JUMPDEST PUSH2 0x1085 JUMP JUMPDEST POP SWAP5 SWAP11 POP SWAP5 SWAP11 SWAP7 SWAP2 SWAP6 SWAP8 SWAP1 SWAP3 SWAP9 PUSH2 0x133D SWAP1 PUSH2 0x2070 JUMP JUMPDEST SWAP6 SWAP5 POP SWAP6 POP SWAP6 POP ISZERO PUSH2 0x1372 JUMPI JUMPDEST POP POP PUSH2 0x100 PUSH1 0x3 SWAP2 PUSH2 0xF1C JUMP JUMPDEST PUSH0 JUMPDEST DUP3 DUP2 LT PUSH2 0x1382 JUMPI JUMPDEST POP PUSH2 0x1365 JUMP JUMPDEST PUSH2 0x138C DUP2 DUP4 PUSH2 0x2137 JUMP JUMPDEST MLOAD ISZERO PUSH2 0x13A0 JUMPI PUSH2 0x139B SWAP1 PUSH2 0x2070 JUMP JUMPDEST PUSH2 0x1374 JUMP JUMPDEST SWAP5 POP PUSH2 0x100 SWAP2 POP PUSH1 0x3 SWAP1 POP DUP6 PUSH2 0x137C JUMP JUMPDEST POP DUP4 ISZERO PUSH2 0x1074 JUMP JUMPDEST PUSH1 0x40 MLOAD PUSH4 0x3CF0CFFF PUSH1 0xE1 SHL DUP2 MSTORE PUSH1 0x4 SWAP1 REVERT JUMPDEST PUSH1 0x40 MLOAD PUSH4 0x3C8AA871 PUSH1 0xE0 SHL DUP2 MSTORE PUSH1 0x4 SWAP1 REVERT JUMPDEST POP CALLER PUSH0 MSTORE PUSH1 0x7 PUSH1 0x20 MSTORE PUSH1 0xFF PUSH1 0x40 PUSH0 KECCAK256 SLOAD AND ISZERO PUSH2 0xDBF JUMP JUMPDEST CALLVALUE PUSH2 0x31B JUMPI PUSH1 0x20 CALLDATASIZE PUSH1 0x3 NOT ADD SLT PUSH2 0x31B JUMPI PUSH1 0x1 PUSH1 0x1 PUSH1 0xA0 SHL SUB PUSH2 0x1415 PUSH2 0x1EAD JUMP JUMPDEST AND PUSH0 MSTORE PUSH1 0xA PUSH1 0x20 MSTORE PUSH1 0x20 PUSH1 0xFF PUSH1 0x40 PUSH0 KECCAK256 SLOAD AND PUSH1 0x40 MLOAD SWAP1 ISZERO ISZERO DUP2 MSTORE RETURN JUMPDEST CALLVALUE PUSH2 0x31B JUMPI PUSH1 0x40 CALLDATASIZE PUSH1 0x3 NOT ADD SLT PUSH2 0x31B JUMPI PUSH2 0x144A PUSH2 0x1EC3 JUMP JUMPDEST PUSH1 0x4 CALLDATALOAD PUSH0 MSTORE PUSH1 0x5 PUSH1 0x20 MSTORE PUSH1 0x40 PUSH0 KECCAK256 SWAP1 PUSH1 0x1 DUP1 PUSH1 0xA0 SHL SUB AND PUSH0 MSTORE PUSH1 0x20 MSTORE PUSH1 0x20 PUSH1 0xFF PUSH1 0x40 PUSH0 KECCAK256 SLOAD AND PUSH1 0x40 MLOAD SWAP1 ISZERO ISZERO DUP2 MSTORE RETURN JUMPDEST CALLVALUE PUSH2 0x31B JUMPI PUSH0 CALLDATASIZE PUSH1 0x3 NOT ADD SLT PUSH2 0x31B JUMPI PUSH1 0x40 MLOAD DUP1 PUSH1 0x3 SLOAD DUP1 DUP3 MSTORE DUP3 PUSH1 0x20 DUP1 SWAP4 ADD PUSH1 0x3 PUSH0 MSTORE PUSH32 0xC2575A0E9E593C00F959F8C92F12DB2869C3395A3B0502D05E2516446F71F85B SWAP3 PUSH0 JUMPDEST DUP6 DUP3 DUP3 LT PUSH2 0x14ED JUMPI POP POP POP PUSH2 0x14D9 SWAP3 POP SUB DUP4 PUSH2 0x1E20 JUMP JUMPDEST PUSH2 0xD96 PUSH1 0x40 MLOAD SWAP3 DUP3 DUP5 SWAP4 DUP5 MSTORE DUP4 ADD SWAP1 PUSH2 0x1F93 JUMP JUMPDEST DUP6 SLOAD DUP5 MSTORE PUSH1 0x1 SWAP6 DUP7 ADD SWAP6 DUP9 SWAP6 POP SWAP4 ADD SWAP3 ADD PUSH2 0x14C2 JUMP JUMPDEST CALLVALUE PUSH2 0x31B JUMPI PUSH1 0x20 CALLDATASIZE PUSH1 0x3 NOT ADD SLT PUSH2 0x31B JUMPI PUSH2 0xD96 PUSH2 0x1527 PUSH2 0x1522 PUSH2 0x1EAD JUMP JUMPDEST PUSH2 0x248B JUMP JUMPDEST PUSH1 0x40 MLOAD SWAP2 DUP3 SWAP2 PUSH1 0x20 DUP4 MSTORE PUSH1 0x20 DUP4 ADD SWAP1 PUSH2 0x1F55 JUMP JUMPDEST CALLVALUE PUSH2 0x31B JUMPI PUSH1 0x20 CALLDATASIZE PUSH1 0x3 NOT ADD SLT PUSH2 0x31B JUMPI PUSH1 0x1 PUSH1 0x1 PUSH1 0xA0 SHL SUB PUSH2 0x155C PUSH2 0x1EAD JUMP JUMPDEST AND PUSH0 MSTORE PUSH1 0x7 PUSH1 0x20 MSTORE PUSH1 0x20 PUSH1 0xFF PUSH1 0x40 PUSH0 KECCAK256 SLOAD AND PUSH1 0x40 MLOAD SWAP1 ISZERO ISZERO DUP2 MSTORE RETURN JUMPDEST CALLVALUE PUSH2 0x31B JUMPI PUSH1 0x20 DUP1 PUSH1 0x3 NOT CALLDATASIZE ADD SLT PUSH2 0x31B JUMPI PUSH1 0x4 CALLDATALOAD DUP1 PUSH0 MSTORE PUSH1 0x2 DUP3 MSTORE PUSH1 0x3 SWAP1 PUSH1 0xFF DUP3 PUSH1 0x40 PUSH0 KECCAK256 ADD SLOAD AND ISZERO PUSH2 0x309 JUMPI PUSH0 DUP2 DUP2 MSTORE PUSH1 0xB DUP5 MSTORE PUSH1 0x40 SWAP1 KECCAK256 SLOAD PUSH1 0x1 PUSH1 0x1 PUSH1 0xA0 SHL SUB SWAP1 DUP2 AND CALLER SUB PUSH2 0x17D8 JUMPI PUSH2 0x15CD DUP3 PUSH2 0x2242 JUMP JUMPDEST PUSH1 0x4 DUP2 LT ISZERO PUSH2 0x2F5 JUMPI PUSH2 0x2B2 JUMPI DUP2 PUSH0 MSTORE PUSH1 0xB DUP5 MSTORE PUSH1 0x40 PUSH0 KECCAK256 SLOAD AND PUSH0 MSTORE PUSH1 0xC DUP4 MSTORE PUSH1 0x40 PUSH0 KECCAK256 SWAP2 PUSH0 JUMPDEST DUP4 SLOAD DUP1 DUP3 LT ISZERO PUSH2 0x17CE JUMPI DUP4 PUSH2 0x1609 DUP4 DUP8 PUSH2 0x20C7 JUMP JUMPDEST SWAP1 SLOAD SWAP1 DUP6 SHL SHR EQ PUSH2 0x1623 JUMPI POP PUSH2 0x161E SWAP1 PUSH2 0x2070 JUMP JUMPDEST PUSH2 0x15F4 JUMP JUMPDEST SWAP3 SWAP4 SWAP2 SWAP3 PUSH0 NOT SWAP2 DUP2 DUP4 ADD SWAP2 DUP3 GT PUSH2 0x1188 JUMPI PUSH2 0x1651 PUSH2 0x1644 PUSH2 0x1669 SWAP4 DUP7 PUSH2 0x20C7 JUMP JUMPDEST SWAP1 SLOAD SWAP1 DUP8 SHL SHR SWAP2 DUP6 PUSH2 0x20C7 JUMP JUMPDEST SWAP1 SWAP2 SWAP1 DUP3 SLOAD SWAP1 PUSH1 0x3 SHL SWAP2 DUP3 SHL SWAP2 PUSH0 NOT SWAP1 SHL NOT AND OR SWAP1 SSTORE JUMP JUMPDEST DUP2 SLOAD DUP1 ISZERO PUSH2 0x17B2 JUMPI ADD SWAP1 PUSH2 0x1690 PUSH2 0x1680 DUP4 DUP4 PUSH2 0x20C7 JUMP JUMPDEST DUP2 SLOAD SWAP1 PUSH0 NOT SWAP1 PUSH1 0x3 SHL SHL NOT AND SWAP1 SSTORE JUMP JUMPDEST SSTORE JUMPDEST PUSH0 JUMPDEST DUP2 SLOAD DUP1 DUP3 LT ISZERO PUSH2 0x17C6 JUMPI DUP4 PUSH2 0x16A8 DUP4 PUSH2 0x207E JUMP JUMPDEST SWAP1 SLOAD SWAP1 DUP6 SHL SHR EQ PUSH2 0x16C2 JUMPI POP PUSH2 0x16BD SWAP1 PUSH2 0x2070 JUMP JUMPDEST PUSH2 0x1694 JUMP JUMPDEST SWAP2 SWAP3 SWAP2 PUSH0 NOT SWAP2 DUP2 DUP4 ADD SWAP2 DUP3 GT PUSH2 0x1188 JUMPI PUSH2 0x1651 PUSH2 0x16E1 PUSH2 0x16ED SWAP4 PUSH2 0x207E JUMP JUMPDEST SWAP1 SLOAD SWAP1 DUP8 SHL SHR SWAP2 PUSH2 0x207E JUMP JUMPDEST DUP3 SLOAD DUP1 ISZERO PUSH2 0x17B2 JUMPI ADD PUSH2 0x1702 PUSH2 0x1680 DUP3 PUSH2 0x207E JUMP JUMPDEST DUP3 SSTORE JUMPDEST PUSH0 MSTORE PUSH1 0xB DUP3 MSTORE PUSH1 0x40 PUSH0 KECCAK256 PUSH12 0xFFFFFFFFFFFFFFFFFFFFFFFF PUSH1 0xA0 SHL DUP2 SLOAD AND SWAP1 SSTORE PUSH1 0x2 DUP3 MSTORE PUSH1 0x40 PUSH0 KECCAK256 SWAP1 PUSH2 0x1736 DUP3 PUSH2 0x23F7 JUMP JUMPDEST PUSH0 PUSH1 0x1 SWAP2 DUP2 DUP4 DUP6 ADD SSTORE DUP2 PUSH1 0x2 DUP6 ADD SSTORE DUP4 ADD SSTORE PUSH0 PUSH1 0x4 DUP4 ADD SSTORE PUSH0 PUSH1 0x5 DUP4 ADD SSTORE PUSH0 PUSH1 0x6 DUP4 ADD SSTORE PUSH1 0x7 DUP3 ADD DUP1 SLOAD SWAP1 PUSH0 DUP2 SSTORE DUP2 PUSH2 0x178F JUMPI JUMPDEST POP POP POP PUSH1 0x8 ADD SWAP1 DUP2 SLOAD SWAP1 PUSH0 DUP4 SSTORE DUP2 PUSH2 0x177E JUMPI STOP JUMPDEST PUSH2 0x652 SWAP3 PUSH0 MSTORE PUSH0 KECCAK256 SWAP1 DUP2 ADD SWAP1 PUSH2 0x2114 JUMP JUMPDEST PUSH0 MSTORE DUP4 PUSH0 KECCAK256 SWAP1 DUP2 ADD SWAP1 JUMPDEST DUP2 DUP2 LT ISZERO PUSH2 0x176A JUMPI DUP1 PUSH2 0x17AC DUP5 SWAP3 PUSH2 0x23F7 JUMP JUMPDEST ADD PUSH2 0x1799 JUMP JUMPDEST PUSH4 0x4E487B71 PUSH1 0xE0 SHL PUSH0 MSTORE PUSH1 0x31 PUSH1 0x4 MSTORE PUSH1 0x24 PUSH0 REVERT JUMPDEST POP POP SWAP1 PUSH2 0x1705 JUMP JUMPDEST POP POP SWAP1 SWAP2 POP PUSH2 0x1692 JUMP JUMPDEST PUSH1 0x40 MLOAD PUSH4 0x59019D3F PUSH1 0xE0 SHL DUP2 MSTORE PUSH1 0x4 SWAP1 REVERT JUMPDEST CALLVALUE PUSH2 0x31B JUMPI PUSH1 0x20 CALLDATASIZE PUSH1 0x3 NOT ADD SLT PUSH2 0x31B JUMPI PUSH2 0x1803 PUSH2 0x1EAD JUMP JUMPDEST PUSH0 SLOAD PUSH1 0x1 PUSH1 0x1 PUSH1 0xA0 SHL SUB SWAP2 SWAP1 DUP3 AND CALLER SUB PUSH2 0xCA3 JUMPI AND PUSH0 SWAP1 DUP2 MSTORE PUSH1 0x7 PUSH1 0x20 MSTORE PUSH1 0x40 SWAP1 KECCAK256 DUP1 SLOAD PUSH1 0xFF NOT AND SWAP1 SSTORE STOP JUMPDEST CALLVALUE PUSH2 0x31B JUMPI PUSH2 0x100 CALLDATASIZE PUSH1 0x3 NOT ADD SLT PUSH2 0x31B JUMPI PUSH1 0x4 CALLDATALOAD PUSH1 0x1 PUSH1 0x1 PUSH1 0x40 SHL SUB DUP2 GT PUSH2 0x31B JUMPI PUSH2 0x1860 SWAP1 CALLDATASIZE SWAP1 PUSH1 0x4 ADD PUSH2 0x1E41 JUMP JUMPDEST PUSH1 0x24 CALLDATALOAD PUSH1 0x1 PUSH1 0x1 PUSH1 0x40 SHL SUB DUP2 GT PUSH2 0x31B JUMPI PUSH2 0x187F SWAP1 CALLDATASIZE SWAP1 PUSH1 0x4 ADD PUSH2 0x1F37 JUMP JUMPDEST SWAP1 PUSH1 0x44 CALLDATALOAD PUSH1 0x1 PUSH1 0x1 PUSH1 0x40 SHL SUB DUP2 GT PUSH2 0x31B JUMPI CALLDATASIZE PUSH1 0x23 DUP3 ADD SLT ISZERO PUSH2 0x31B JUMPI DUP1 PUSH1 0x4 ADD CALLDATALOAD PUSH2 0x18AA DUP2 PUSH2 0x1E96 JUMP JUMPDEST SWAP2 PUSH2 0x18B8 PUSH1 0x40 MLOAD SWAP4 DUP5 PUSH2 0x1E20 JUMP JUMPDEST DUP2 DUP4 MSTORE PUSH1 0x24 PUSH1 0x20 DUP5 ADD SWAP3 PUSH1 0x5 SHL DUP3 ADD ADD SWAP1 CALLDATASIZE DUP3 GT PUSH2 0x31B JUMPI PUSH1 0x24 DUP2 ADD SWAP3 JUMPDEST DUP3 DUP5 LT PUSH2 0x1DBB JUMPI POP POP POP POP PUSH1 0x64 CALLDATALOAD PUSH1 0x1 PUSH1 0x1 PUSH1 0x40 SHL SUB DUP2 GT PUSH2 0x31B JUMPI PUSH2 0x1900 SWAP1 CALLDATASIZE SWAP1 PUSH1 0x4 ADD PUSH2 0x1F37 JUMP JUMPDEST PUSH1 0x2 PUSH1 0x84 CALLDATALOAD LT ISZERO PUSH2 0x31B JUMPI CALLER PUSH0 MSTORE PUSH1 0x9 PUSH1 0x20 MSTORE PUSH1 0xFF PUSH1 0x40 PUSH0 KECCAK256 SLOAD AND ISZERO DUP1 PUSH2 0x1DA7 JUMPI JUMPDEST PUSH2 0x2B2 JUMPI PUSH1 0xE4 CALLDATALOAD ISZERO DUP1 ISZERO PUSH2 0x1D9B JUMPI JUMPDEST PUSH2 0xBD8 JUMPI DUP2 MLOAD ISZERO PUSH2 0x1D89 JUMPI PUSH1 0xC4 CALLDATALOAD PUSH1 0xA4 CALLDATALOAD LT ISZERO PUSH2 0x1D77 JUMPI PUSH1 0x1 SLOAD SWAP1 PUSH2 0x1955 DUP3 PUSH2 0x2070 JUMP JUMPDEST PUSH1 0x1 SSTORE DUP2 PUSH0 MSTORE PUSH1 0x2 PUSH1 0x20 MSTORE PUSH1 0x40 PUSH0 KECCAK256 SWAP5 PUSH1 0xB PUSH1 0x20 MSTORE PUSH1 0x40 PUSH0 KECCAK256 CALLER PUSH12 0xFFFFFFFFFFFFFFFFFFFFFFFF PUSH1 0xA0 SHL DUP3 SLOAD AND OR SWAP1 SSTORE CALLER PUSH0 MSTORE PUSH1 0xC PUSH1 0x20 MSTORE PUSH1 0x40 PUSH0 KECCAK256 DUP1 SLOAD PUSH1 0x1 PUSH1 0x40 SHL DUP2 LT ISZERO PUSH2 0xB50 JUMPI PUSH2 0x1651 DUP2 PUSH2 0x19B3 SWAP4 PUSH1 0x1 DUP9 SWAP5 ADD DUP2 SSTORE PUSH2 0x20C7 JUMP JUMPDEST PUSH1 0x3 SLOAD PUSH1 0x1 PUSH1 0x40 SHL DUP2 LT ISZERO PUSH2 0xB50 JUMPI DUP4 PUSH2 0x1651 DUP3 PUSH1 0x1 PUSH2 0x19D6 SWAP5 ADD PUSH1 0x3 SSTORE PUSH2 0x207E JUMP JUMPDEST DUP5 MLOAD PUSH1 0x1 PUSH1 0x1 PUSH1 0x40 SHL SUB DUP2 GT PUSH2 0xB50 JUMPI PUSH2 0x19F0 DUP8 SLOAD PUSH2 0x20DC JUMP JUMPDEST PUSH1 0x1F DUP2 GT PUSH2 0x1D47 JUMPI JUMPDEST POP DUP1 PUSH1 0x20 PUSH1 0x1F DUP3 GT PUSH1 0x1 EQ PUSH2 0x1CE4 JUMPI PUSH0 SWAP2 PUSH2 0x1CD9 JUMPI JUMPDEST POP DUP2 PUSH1 0x1 SHL SWAP2 PUSH0 NOT SWAP1 PUSH1 0x3 SHL SHR NOT AND OR DUP7 SSTORE JUMPDEST PUSH1 0xA4 CALLDATALOAD PUSH1 0x1 DUP8 ADD SSTORE PUSH1 0xC4 CALLDATALOAD PUSH1 0x2 DUP8 ADD SSTORE PUSH1 0x1 PUSH1 0xFF NOT PUSH1 0x3 DUP9 ADD SLOAD AND OR PUSH1 0x3 DUP8 ADD SSTORE PUSH1 0x6 DUP7 ADD PUSH1 0xFF NOT DUP2 SLOAD AND PUSH1 0xFF PUSH1 0x84 CALLDATALOAD AND OR SWAP1 SSTORE PUSH1 0x84 CALLDATALOAD ISZERO PUSH0 EQ PUSH2 0x1CC3 JUMPI PUSH1 0xE4 CALLDATALOAD PUSH1 0x4 DUP8 ADD SSTORE JUMPDEST DUP1 MLOAD PUSH2 0x1CB3 JUMPI JUMPDEST POP PUSH0 JUMPDEST DUP4 MLOAD DUP2 LT ISZERO PUSH2 0x1BD5 JUMPI PUSH2 0x1A86 DUP2 DUP6 PUSH2 0x2137 JUMP JUMPDEST MLOAD PUSH1 0x40 MLOAD SWAP1 PUSH2 0x1A94 DUP3 PUSH2 0x1DEA JUMP JUMPDEST DUP2 MSTORE PUSH1 0x7 DUP8 ADD SLOAD PUSH1 0x1 PUSH1 0x40 SHL DUP2 LT ISZERO PUSH2 0xB50 JUMPI DUP1 PUSH1 0x1 PUSH2 0x1ABD SWAP3 ADD PUSH1 0x7 DUP11 ADD SSTORE PUSH1 0x7 DUP10 ADD PUSH2 0x20C7 JUMP JUMPDEST SWAP2 SWAP1 SWAP2 PUSH2 0xB64 JUMPI MLOAD DUP1 MLOAD SWAP1 PUSH1 0x1 PUSH1 0x1 PUSH1 0x40 SHL SUB DUP3 GT PUSH2 0xB50 JUMPI PUSH2 0x1AE0 DUP4 SLOAD PUSH2 0x20DC JUMP JUMPDEST PUSH1 0x1F DUP2 GT PUSH2 0x1B9A JUMPI JUMPDEST POP PUSH1 0x20 SWAP1 PUSH1 0x1F DUP4 GT PUSH1 0x1 EQ PUSH2 0x1B2F JUMPI PUSH2 0x1B1F SWAP5 SWAP4 SWAP3 SWAP2 PUSH0 SWAP2 DUP4 PUSH2 0x1B24 JUMPI JUMPDEST POP POP DUP2 PUSH1 0x1 SHL SWAP2 PUSH0 NOT SWAP1 PUSH1 0x3 SHL SHR NOT AND OR SWAP1 SSTORE PUSH2 0x2070 JUMP JUMPDEST PUSH2 0x1A73 JUMP JUMPDEST ADD MLOAD SWAP1 POP DUP11 DUP1 PUSH2 0x1B07 JUMP JUMPDEST SWAP1 DUP4 PUSH0 MSTORE PUSH1 0x20 PUSH0 KECCAK256 SWAP2 PUSH0 JUMPDEST PUSH1 0x1F NOT DUP6 AND DUP2 LT PUSH2 0x1B82 JUMPI POP SWAP2 DUP4 SWAP2 PUSH1 0x1 SWAP4 PUSH2 0x1B1F SWAP8 SWAP7 SWAP6 PUSH1 0x1F NOT DUP2 AND LT PUSH2 0x1B6A JUMPI JUMPDEST POP POP POP DUP2 SHL ADD SWAP1 SSTORE PUSH2 0x2070 JUMP JUMPDEST ADD MLOAD PUSH0 NOT PUSH1 0xF8 DUP5 PUSH1 0x3 SHL AND SHR NOT AND SWAP1 SSTORE DUP11 DUP1 DUP1 PUSH2 0x1B5D JUMP JUMPDEST SWAP2 SWAP3 PUSH1 0x20 PUSH1 0x1 DUP2 SWAP3 DUP7 DUP6 ADD MLOAD DUP2 SSTORE ADD SWAP5 ADD SWAP3 ADD PUSH2 0x1B3A JUMP JUMPDEST PUSH2 0x1BC5 SWAP1 DUP5 PUSH0 MSTORE PUSH1 0x20 PUSH0 KECCAK256 PUSH1 0x1F DUP6 ADD PUSH1 0x5 SHR DUP2 ADD SWAP2 PUSH1 0x20 DUP7 LT PUSH2 0x1BCB JUMPI JUMPDEST PUSH1 0x1F ADD PUSH1 0x5 SHR ADD SWAP1 PUSH2 0x2114 JUMP JUMPDEST DUP10 PUSH2 0x1AE9 JUMP JUMPDEST SWAP1 SWAP2 POP DUP2 SWAP1 PUSH2 0x1BB8 JUMP JUMPDEST POP SWAP1 SWAP3 PUSH0 JUMPDEST DUP3 MLOAD DUP2 LT ISZERO PUSH2 0x1C48 JUMPI PUSH1 0x1 PUSH1 0x1 PUSH1 0xA0 SHL SUB SWAP1 DUP2 PUSH2 0x1BF7 DUP3 DUP7 PUSH2 0x2137 JUMP JUMPDEST MLOAD AND PUSH0 MSTORE PUSH1 0xA PUSH1 0x20 MSTORE PUSH1 0xFF PUSH1 0x40 PUSH0 KECCAK256 SLOAD AND ISZERO PUSH2 0x2B2 JUMPI PUSH2 0x1C43 SWAP2 DUP7 PUSH0 MSTORE PUSH1 0x8 PUSH1 0x20 MSTORE PUSH1 0x40 PUSH0 KECCAK256 SWAP1 PUSH2 0x1C28 DUP4 DUP8 PUSH2 0x2137 JUMP JUMPDEST MLOAD AND PUSH0 MSTORE PUSH1 0x20 MSTORE PUSH1 0x40 PUSH0 KECCAK256 PUSH1 0x1 PUSH1 0xFF NOT DUP3 SLOAD AND OR SWAP1 SSTORE PUSH2 0x2070 JUMP JUMPDEST PUSH2 0x1BDA JUMP JUMPDEST PUSH1 0x20 DUP6 DUP4 DUP2 PUSH32 0xF430A5D69E2A8BF7E182935F788C8EEBCBA079A3DE38BE32477B82CA394EB730 PUSH2 0x1C94 DUP10 PUSH2 0x1C87 PUSH1 0x40 MLOAD SWAP6 PUSH1 0x80 DUP8 MSTORE PUSH1 0x80 DUP8 ADD SWAP1 PUSH2 0x1F55 JUMP JUMPDEST SWAP1 DUP6 DUP3 SUB DUP9 DUP8 ADD MSTORE PUSH2 0x2015 JUMP JUMPDEST SWAP3 PUSH1 0xA4 CALLDATALOAD PUSH1 0x40 DUP3 ADD MSTORE PUSH1 0xC4 CALLDATALOAD PUSH1 0x60 DUP3 ADD MSTORE DUP1 CALLER SWAP5 SUB SWAP1 LOG3 PUSH1 0x40 MLOAD SWAP1 DUP2 MSTORE RETURN JUMPDEST PUSH2 0x1CBD SWAP1 DUP4 PUSH2 0x214B JUMP JUMPDEST DUP6 PUSH2 0x1A70 JUMP JUMPDEST PUSH1 0x1 PUSH1 0x84 CALLDATALOAD SUB PUSH2 0x1A69 JUMPI PUSH1 0x1 PUSH1 0x4 DUP8 ADD SSTORE PUSH2 0x1A69 JUMP JUMPDEST SWAP1 POP DUP7 ADD MLOAD DUP9 PUSH2 0x1A0F JUMP JUMPDEST SWAP2 POP DUP8 PUSH0 MSTORE PUSH1 0x20 PUSH0 KECCAK256 PUSH0 SWAP3 JUMPDEST PUSH1 0x1F NOT DUP4 AND DUP5 LT PUSH2 0x1D2F JUMPI PUSH1 0x1 SWAP4 POP DUP3 PUSH1 0x1F NOT DUP2 AND LT PUSH2 0x1D17 JUMPI JUMPDEST POP POP DUP2 SHL ADD DUP7 SSTORE PUSH2 0x1A22 JUMP JUMPDEST DUP9 ADD MLOAD PUSH0 NOT PUSH1 0xF8 DUP5 PUSH1 0x3 SHL AND SHR NOT AND SWAP1 SSTORE DUP9 DUP1 PUSH2 0x1D0B JUMP JUMPDEST DUP9 DUP2 ADD MLOAD DUP3 SSTORE PUSH1 0x20 SWAP4 DUP5 ADD SWAP4 PUSH1 0x1 SWAP1 SWAP3 ADD SWAP2 ADD PUSH2 0x1CF0 JUMP JUMPDEST PUSH2 0x1D71 SWAP1 DUP9 PUSH0 MSTORE PUSH1 0x20 PUSH0 KECCAK256 PUSH1 0x1F DUP5 ADD PUSH1 0x5 SHR DUP2 ADD SWAP2 PUSH1 0x20 DUP6 LT PUSH2 0x1BCB JUMPI PUSH1 0x1F ADD PUSH1 0x5 SHR ADD SWAP1 PUSH2 0x2114 JUMP JUMPDEST DUP8 PUSH2 0x19F9 JUMP JUMPDEST PUSH1 0x40 MLOAD PUSH4 0x37BF5613 PUSH1 0xE1 SHL DUP2 MSTORE PUSH1 0x4 SWAP1 REVERT JUMPDEST PUSH1 0x40 MLOAD PUSH4 0x84D3C6D PUSH1 0xE1 SHL DUP2 MSTORE PUSH1 0x4 SWAP1 REVERT JUMPDEST POP DUP2 MLOAD PUSH1 0xE4 CALLDATALOAD GT PUSH2 0x1931 JUMP JUMPDEST POP PUSH0 SLOAD PUSH1 0x1 PUSH1 0x1 PUSH1 0xA0 SHL SUB AND CALLER EQ ISZERO PUSH2 0x1922 JUMP JUMPDEST DUP4 CALLDATALOAD PUSH1 0x1 PUSH1 0x1 PUSH1 0x40 SHL SUB DUP2 GT PUSH2 0x31B JUMPI PUSH1 0x20 SWAP2 PUSH2 0x1DDF DUP4 SWAP3 PUSH1 0x24 CALLDATASIZE SWAP2 DUP8 ADD ADD PUSH2 0x1E41 JUMP JUMPDEST DUP2 MSTORE ADD SWAP4 ADD SWAP3 PUSH2 0x18D6 JUMP JUMPDEST PUSH1 0x20 DUP2 ADD SWAP1 DUP2 LT PUSH1 0x1 PUSH1 0x1 PUSH1 0x40 SHL SUB DUP3 GT OR PUSH2 0xB50 JUMPI PUSH1 0x40 MSTORE JUMP JUMPDEST PUSH1 0x40 DUP2 ADD SWAP1 DUP2 LT PUSH1 0x1 PUSH1 0x1 PUSH1 0x40 SHL SUB DUP3 GT OR PUSH2 0xB50 JUMPI PUSH1 0x40 MSTORE JUMP JUMPDEST SWAP1 PUSH1 0x1F DUP1 NOT SWAP2 ADD AND DUP2 ADD SWAP1 DUP2 LT PUSH1 0x1 PUSH1 0x1 PUSH1 0x40 SHL SUB DUP3 GT OR PUSH2 0xB50 JUMPI PUSH1 0x40 MSTORE JUMP JUMPDEST DUP2 PUSH1 0x1F DUP3 ADD SLT ISZERO PUSH2 0x31B JUMPI DUP1 CALLDATALOAD SWAP1 PUSH1 0x1 PUSH1 0x1 PUSH1 0x40 SHL SUB DUP3 GT PUSH2 0xB50 JUMPI PUSH1 0x40 MLOAD SWAP3 PUSH2 0x1E75 PUSH1 0x1F DUP5 ADD PUSH1 0x1F NOT AND PUSH1 0x20 ADD DUP6 PUSH2 0x1E20 JUMP JUMPDEST DUP3 DUP5 MSTORE PUSH1 0x20 DUP4 DUP4 ADD ADD GT PUSH2 0x31B JUMPI DUP2 PUSH0 SWAP3 PUSH1 0x20 DUP1 SWAP4 ADD DUP4 DUP7 ADD CALLDATACOPY DUP4 ADD ADD MSTORE SWAP1 JUMP JUMPDEST PUSH1 0x1 PUSH1 0x1 PUSH1 0x40 SHL SUB DUP2 GT PUSH2 0xB50 JUMPI PUSH1 0x5 SHL PUSH1 0x20 ADD SWAP1 JUMP JUMPDEST PUSH1 0x4 CALLDATALOAD SWAP1 PUSH1 0x1 PUSH1 0x1 PUSH1 0xA0 SHL SUB DUP3 AND DUP3 SUB PUSH2 0x31B JUMPI JUMP JUMPDEST PUSH1 0x24 CALLDATALOAD SWAP1 PUSH1 0x1 PUSH1 0x1 PUSH1 0xA0 SHL SUB DUP3 AND DUP3 SUB PUSH2 0x31B JUMPI JUMP JUMPDEST SWAP3 SWAP2 PUSH2 0x1EE4 DUP3 PUSH2 0x1E96 JUMP JUMPDEST SWAP2 PUSH2 0x1EF2 PUSH1 0x40 MLOAD SWAP4 DUP5 PUSH2 0x1E20 JUMP JUMPDEST DUP3 SWAP5 DUP2 DUP5 MSTORE PUSH1 0x20 DUP1 SWAP5 ADD SWAP2 PUSH1 0x5 SHL DUP2 ADD SWAP3 DUP4 GT PUSH2 0x31B JUMPI SWAP1 JUMPDEST DUP3 DUP3 LT PUSH2 0x1F18 JUMPI POP POP POP POP JUMP JUMPDEST DUP2 CALLDATALOAD PUSH1 0x1 PUSH1 0x1 PUSH1 0xA0 SHL SUB DUP2 AND DUP2 SUB PUSH2 0x31B JUMPI DUP2 MSTORE SWAP1 DUP4 ADD SWAP1 DUP4 ADD PUSH2 0x1F0B JUMP JUMPDEST SWAP1 DUP1 PUSH1 0x1F DUP4 ADD SLT ISZERO PUSH2 0x31B JUMPI DUP2 PUSH1 0x20 PUSH2 0x1F52 SWAP4 CALLDATALOAD SWAP2 ADD PUSH2 0x1ED9 JUMP JUMPDEST SWAP1 JUMP JUMPDEST SWAP2 SWAP1 DUP3 MLOAD SWAP3 DUP4 DUP3 MSTORE PUSH0 JUMPDEST DUP5 DUP2 LT PUSH2 0x1F7F JUMPI POP POP DUP3 PUSH0 PUSH1 0x20 DUP1 SWAP5 SWAP6 DUP5 ADD ADD MSTORE PUSH1 0x1F DUP1 NOT SWAP2 ADD AND ADD ADD SWAP1 JUMP JUMPDEST PUSH1 0x20 DUP2 DUP4 ADD DUP2 ADD MLOAD DUP5 DUP4 ADD DUP3 ADD MSTORE ADD PUSH2 0x1F5F JUMP JUMPDEST SWAP1 DUP2 MLOAD DUP1 DUP3 MSTORE PUSH1 0x20 DUP1 DUP1 SWAP4 ADD SWAP4 ADD SWAP2 PUSH0 JUMPDEST DUP3 DUP2 LT PUSH2 0x1FB2 JUMPI POP POP POP POP SWAP1 JUMP JUMPDEST DUP4 MLOAD DUP6 MSTORE SWAP4 DUP2 ADD SWAP4 SWAP3 DUP2 ADD SWAP3 PUSH1 0x1 ADD PUSH2 0x1FA4 JUMP JUMPDEST PUSH1 0x40 PUSH1 0x3 NOT DUP3 ADD SLT PUSH2 0x31B JUMPI PUSH1 0x4 CALLDATALOAD SWAP2 PUSH1 0x24 CALLDATALOAD PUSH1 0x1 PUSH1 0x1 PUSH1 0x40 SHL SUB SWAP3 DUP4 DUP3 GT PUSH2 0x31B JUMPI DUP1 PUSH1 0x23 DUP4 ADD SLT ISZERO PUSH2 0x31B JUMPI DUP2 PUSH1 0x4 ADD CALLDATALOAD SWAP4 DUP5 GT PUSH2 0x31B JUMPI PUSH1 0x24 DUP5 PUSH1 0x5 SHL DUP4 ADD ADD GT PUSH2 0x31B JUMPI PUSH1 0x24 ADD SWAP2 SWAP1 JUMP JUMPDEST SWAP1 DUP1 DUP3 MLOAD SWAP1 DUP2 DUP2 MSTORE PUSH1 0x20 DUP1 SWAP2 ADD SWAP3 DUP2 DUP1 DUP5 PUSH1 0x5 SHL DUP4 ADD ADD SWAP6 ADD SWAP4 PUSH0 SWAP2 JUMPDEST DUP5 DUP4 LT PUSH2 0x2042 JUMPI POP POP POP POP POP POP SWAP1 JUMP JUMPDEST SWAP1 SWAP2 SWAP3 SWAP4 SWAP5 SWAP6 DUP5 DUP1 PUSH2 0x2060 PUSH1 0x1 SWAP4 PUSH1 0x1F NOT DUP7 DUP3 SUB ADD DUP8 MSTORE DUP11 MLOAD PUSH2 0x1F55 JUMP JUMPDEST SWAP9 ADD SWAP4 ADD SWAP4 ADD SWAP2 SWAP5 SWAP4 SWAP3 SWAP1 PUSH2 0x2032 JUMP JUMPDEST PUSH0 NOT DUP2 EQ PUSH2 0x1188 JUMPI PUSH1 0x1 ADD SWAP1 JUMP JUMPDEST PUSH1 0x3 SLOAD DUP2 LT ISZERO PUSH2 0x20B3 JUMPI PUSH1 0x3 PUSH0 MSTORE PUSH32 0xC2575A0E9E593C00F959F8C92F12DB2869C3395A3B0502D05E2516446F71F85B ADD SWAP1 PUSH0 SWAP1 JUMP JUMPDEST PUSH4 0x4E487B71 PUSH1 0xE0 SHL PUSH0 MSTORE PUSH1 0x32 PUSH1 0x4 MSTORE PUSH1 0x24 PUSH0 REVERT JUMPDEST DUP1 SLOAD DUP3 LT ISZERO PUSH2 0x20B3 JUMPI PUSH0 MSTORE PUSH1 0x20 PUSH0 KECCAK256 ADD SWAP1 PUSH0 SWAP1 JUMP JUMPDEST SWAP1 PUSH1 0x1 DUP3 DUP2 SHR SWAP3 AND DUP1 ISZERO PUSH2 0x210A JUMPI JUMPDEST PUSH1 0x20 DUP4 LT EQ PUSH2 0x20F6 JUMPI JUMP JUMPDEST PUSH4 0x4E487B71 PUSH1 0xE0 SHL PUSH0 MSTORE PUSH1 0x22 PUSH1 0x4 MSTORE PUSH1 0x24 PUSH0 REVERT JUMPDEST SWAP2 PUSH1 0x7F AND SWAP2 PUSH2 0x20EB JUMP JUMPDEST DUP2 DUP2 LT PUSH2 0x211F JUMPI POP POP JUMP JUMPDEST PUSH0 DUP2 SSTORE PUSH1 0x1 ADD PUSH2 0x2114 JUMP JUMPDEST DUP1 MLOAD ISZERO PUSH2 0x20B3 JUMPI PUSH1 0x20 ADD SWAP1 JUMP JUMPDEST DUP1 MLOAD DUP3 LT ISZERO PUSH2 0x20B3 JUMPI PUSH1 0x20 SWAP2 PUSH1 0x5 SHL ADD ADD SWAP1 JUMP JUMPDEST SWAP1 PUSH0 JUMPDEST DUP2 MLOAD DUP2 LT ISZERO PUSH2 0x219C JUMPI PUSH0 DUP4 DUP2 MSTORE PUSH1 0x4 PUSH1 0x20 SWAP1 DUP2 MSTORE PUSH1 0x40 SWAP2 DUP3 SWAP1 KECCAK256 PUSH2 0x2197 SWAP4 SWAP3 SWAP2 PUSH1 0x1 PUSH1 0x1 PUSH1 0xA0 SHL SUB PUSH2 0x2180 DUP6 DUP9 PUSH2 0x2137 JUMP JUMPDEST MLOAD AND PUSH0 MSTORE MSTORE PUSH0 KECCAK256 PUSH1 0x1 PUSH1 0xFF NOT DUP3 SLOAD AND OR SWAP1 SSTORE PUSH2 0x2070 JUMP JUMPDEST PUSH2 0x214E JUMP JUMPDEST POP POP POP JUMP JUMPDEST SWAP1 PUSH1 0x40 MLOAD SWAP2 DUP3 PUSH0 DUP3 SLOAD SWAP3 PUSH2 0x21B4 DUP5 PUSH2 0x20DC JUMP JUMPDEST SWAP1 DUP2 DUP5 MSTORE PUSH1 0x1 SWAP5 DUP6 DUP2 AND SWAP1 DUP2 PUSH0 EQ PUSH2 0x221F JUMPI POP PUSH1 0x1 EQ PUSH2 0x21DF JUMPI JUMPDEST POP POP PUSH2 0x21DD SWAP3 POP SUB DUP4 PUSH2 0x1E20 JUMP JUMPDEST JUMP JUMPDEST SWAP1 SWAP4 SWAP2 POP PUSH0 MSTORE PUSH1 0x20 SWAP1 DUP2 PUSH0 KECCAK256 SWAP4 PUSH0 SWAP2 JUMPDEST DUP2 DUP4 LT PUSH2 0x2207 JUMPI POP POP PUSH2 0x21DD SWAP4 POP DUP3 ADD ADD PUSH0 DUP1 PUSH2 0x21CF JUMP JUMPDEST DUP6 SLOAD DUP9 DUP5 ADD DUP6 ADD MSTORE SWAP5 DUP6 ADD SWAP5 DUP8 SWAP5 POP SWAP2 DUP4 ADD SWAP2 PUSH2 0x21EF JUMP JUMPDEST SWAP2 POP POP PUSH2 0x21DD SWAP5 POP PUSH1 0x20 SWAP3 POP PUSH1 0xFF NOT AND DUP3 DUP5 ADD MSTORE ISZERO ISZERO PUSH1 0x5 SHL DUP3 ADD ADD PUSH0 DUP1 PUSH2 0x21CF JUMP JUMPDEST PUSH0 SWAP1 DUP2 MSTORE PUSH1 0x20 SWAP1 PUSH1 0x2 DUP3 MSTORE PUSH1 0x40 SWAP1 DUP2 DUP2 KECCAK256 DUP3 MLOAD SWAP1 PUSH2 0x140 DUP3 ADD DUP3 DUP2 LT PUSH1 0x1 PUSH1 0x1 PUSH1 0x40 SHL SUB DUP3 GT OR PUSH2 0x23E3 JUMPI DUP5 MSTORE PUSH2 0x2278 DUP2 PUSH2 0x21A1 JUMP JUMPDEST DUP3 MSTORE PUSH1 0x1 SWAP5 DUP6 DUP3 ADD SLOAD SWAP3 DUP2 DUP2 ADD SWAP4 DUP5 MSTORE PUSH1 0x2 DUP4 ADD SLOAD SWAP6 DUP1 DUP3 ADD SWAP7 DUP8 MSTORE PUSH1 0x3 DUP5 ADD SLOAD SWAP4 PUSH1 0xFF DUP6 AND ISZERO ISZERO PUSH1 0x60 DUP5 ADD MSTORE PUSH1 0xFF PUSH1 0x80 DUP5 ADD SWAP6 PUSH1 0x8 SHR AND ISZERO ISZERO DUP6 MSTORE PUSH1 0x4 DUP2 ADD SLOAD PUSH1 0xA0 DUP5 ADD MSTORE PUSH1 0x5 DUP2 ADD SLOAD PUSH1 0xC0 DUP5 ADD MSTORE PUSH1 0xFF PUSH1 0x6 DUP3 ADD SLOAD AND PUSH1 0x2 DUP2 LT ISZERO PUSH2 0x23CF JUMPI PUSH1 0xE0 DUP5 ADD MSTORE PUSH1 0x7 DUP2 ADD DUP1 SLOAD PUSH2 0x22ED DUP2 PUSH2 0x1E96 JUMP JUMPDEST SWAP2 PUSH2 0x22FA DUP6 MLOAD SWAP4 DUP5 PUSH2 0x1E20 JUMP JUMPDEST DUP2 DUP4 MSTORE DUP10 MSTORE DUP6 DUP10 KECCAK256 DUP10 SWAP1 DUP13 DUP9 DUP1 DUP7 ADD JUMPDEST DUP6 DUP6 LT PUSH2 0x23A5 JUMPI POP POP POP POP POP POP SWAP1 PUSH1 0x8 SWAP2 PUSH2 0x100 DUP6 ADD MSTORE ADD SWAP1 MLOAD SWAP1 DUP2 SWAP4 DUP5 SWAP3 DUP2 DUP4 SLOAD SWAP2 DUP3 DUP2 MSTORE ADD SWAP3 DUP10 MSTORE DUP2 DUP10 KECCAK256 SWAP2 DUP10 SWAP1 JUMPDEST DUP13 DUP4 DUP4 LT PUSH2 0x2383 JUMPI POP POP POP POP POP PUSH2 0x120 SWAP3 SWAP2 PUSH2 0x2358 SWAP2 SUB DUP5 PUSH2 0x1E20 JUMP JUMPDEST ADD MSTORE MLOAD PUSH2 0x237A JUMPI MLOAD TIMESTAMP LT PUSH2 0x2374 JUMPI POP MLOAD TIMESTAMP LT PUSH2 0x1F52 JUMPI POP PUSH1 0x2 SWAP1 JUMP JUMPDEST SWAP2 POP POP SWAP1 JUMP JUMPDEST POP POP POP POP PUSH1 0x3 SWAP1 JUMP JUMPDEST DUP5 SLOAD PUSH1 0x1 PUSH1 0x1 PUSH1 0xA0 SHL SUB AND DUP7 MSTORE DUP9 SWAP7 POP SWAP5 DUP2 ADD SWAP5 SWAP4 DUP5 ADD SWAP4 SWAP2 SWAP1 SWAP2 ADD SWAP1 PUSH2 0x233B JUMP JUMPDEST SWAP1 DUP3 SWAP2 DUP10 MLOAD PUSH2 0x23B3 DUP2 PUSH2 0x1DEA JUMP JUMPDEST PUSH2 0x23BC DUP7 PUSH2 0x21A1 JUMP JUMPDEST DUP2 MSTORE DUP2 MSTORE ADD SWAP3 ADD SWAP3 ADD SWAP2 SWAP1 DUP9 DUP15 SWAP2 PUSH2 0x230A JUMP JUMPDEST PUSH4 0x4E487B71 PUSH1 0xE0 SHL DUP9 MSTORE PUSH1 0x21 PUSH1 0x4 MSTORE PUSH1 0x24 DUP9 REVERT JUMPDEST PUSH4 0x4E487B71 PUSH1 0xE0 SHL DUP5 MSTORE PUSH1 0x41 PUSH1 0x4 MSTORE PUSH1 0x24 DUP5 REVERT JUMPDEST PUSH2 0x2401 DUP2 SLOAD PUSH2 0x20DC JUMP JUMPDEST SWAP1 DUP2 PUSH2 0x240B JUMPI POP POP JUMP JUMPDEST DUP2 PUSH1 0x1F PUSH0 SWAP4 GT PUSH1 0x1 EQ PUSH2 0x241C JUMPI POP SSTORE JUMP JUMPDEST SWAP1 DUP1 DUP4 SWAP2 DUP3 MSTORE PUSH2 0x243B PUSH1 0x1F PUSH1 0x20 DUP5 KECCAK256 SWAP5 ADD PUSH1 0x5 SHR DUP5 ADD PUSH1 0x1 DUP6 ADD PUSH2 0x2114 JUMP JUMPDEST SSTORE SSTORE JUMP JUMPDEST SWAP1 PUSH1 0x40 MLOAD SWAP2 DUP3 DUP2 SLOAD SWAP2 DUP3 DUP3 MSTORE PUSH1 0x20 SWAP3 DUP4 DUP4 ADD SWAP2 PUSH0 MSTORE DUP4 PUSH0 KECCAK256 SWAP4 PUSH0 SWAP1 JUMPDEST DUP3 DUP3 LT PUSH2 0x2471 JUMPI POP POP POP PUSH2 0x21DD SWAP3 POP SUB DUP4 PUSH2 0x1E20 JUMP JUMPDEST DUP6 SLOAD DUP5 MSTORE PUSH1 0x1 SWAP6 DUP7 ADD SWAP6 DUP9 SWAP6 POP SWAP4 DUP2 ADD SWAP4 SWAP1 SWAP2 ADD SWAP1 PUSH2 0x245B JUMP JUMPDEST PUSH0 SLOAD PUSH1 0x1 PUSH1 0x1 PUSH1 0xA0 SHL SUB SWAP2 DUP3 AND SWAP2 AND DUP2 EQ PUSH2 0x2533 JUMPI DUP1 PUSH0 MSTORE PUSH1 0x9 PUSH1 0x20 MSTORE PUSH1 0xFF PUSH1 0x40 PUSH0 KECCAK256 SLOAD AND PUSH2 0x250A JUMPI PUSH0 MSTORE PUSH1 0xA PUSH1 0x20 MSTORE PUSH1 0xFF PUSH1 0x40 PUSH0 KECCAK256 SLOAD AND PUSH2 0x24E7 JUMPI PUSH1 0x40 MLOAD PUSH2 0x24D3 DUP2 PUSH2 0x1E05 JUMP JUMPDEST PUSH1 0x4 DUP2 MSTORE PUSH4 0x2AB9B2B9 PUSH1 0xE1 SHL PUSH1 0x20 DUP3 ADD MSTORE SWAP1 JUMP JUMPDEST PUSH1 0x40 MLOAD PUSH2 0x24F3 DUP2 PUSH2 0x1E05 JUMP JUMPDEST PUSH1 0x7 DUP2 MSTORE PUSH7 0x20BAB234BA37B9 PUSH1 0xC9 SHL PUSH1 0x20 DUP3 ADD MSTORE SWAP1 JUMP JUMPDEST POP PUSH1 0x40 MLOAD PUSH2 0x2517 DUP2 PUSH2 0x1E05 JUMP JUMPDEST PUSH1 0xC DUP2 MSTORE PUSH12 0x27B933B0B734BD30BA34B7B7 PUSH1 0xA1 SHL PUSH1 0x20 DUP3 ADD MSTORE SWAP1 JUMP JUMPDEST POP PUSH1 0x40 MLOAD PUSH2 0x2540 DUP2 PUSH2 0x1E05 JUMP JUMPDEST PUSH1 0x5 DUP2 MSTORE PUSH5 0x27BBB732B9 PUSH1 0xD9 SHL PUSH1 0x20 DUP3 ADD MSTORE SWAP1 JUMP JUMPDEST SWAP1 PUSH2 0x255F DUP3 PUSH2 0x1E96 JUMP JUMPDEST PUSH2 0x256C PUSH1 0x40 MLOAD SWAP2 DUP3 PUSH2 0x1E20 JUMP JUMPDEST DUP3 DUP2 MSTORE DUP1 SWAP3 PUSH2 0x257D PUSH1 0x1F NOT SWAP2 PUSH2 0x1E96 JUMP JUMPDEST ADD SWAP1 PUSH1 0x20 CALLDATASIZE SWAP2 ADD CALLDATACOPY JUMP JUMPDEST DUP2 ISZERO PUSH2 0x2591 JUMPI MOD SWAP1 JUMP JUMPDEST PUSH4 0x4E487B71 PUSH1 0xE0 SHL PUSH0 MSTORE PUSH1 0x12 PUSH1 0x4 MSTORE PUSH1 0x24 PUSH0 REVERT JUMPDEST PUSH0 JUMPDEST DUP3 DUP2 LT PUSH2 0x25B3 JUMPI POP POP POP JUMP JUMPDEST PUSH1 0x60 DUP3 DUP3 ADD MSTORE PUSH1 0x20 ADD PUSH2 0x25A7 JUMP INVALID LOG2 PUSH5 0x6970667358 0x22 SLT KECCAK256 NUMBER 0xCE 0xDA CODESIZE DIV GT 0xAA SWAP2 PUSH20 0xF5ABA6F35A1730A87DF10EB3DE0D146950643683 PUSH10 0xBC3164736F6C63430008 EQ STOP CALLER "
                },
                "methodIdentifiers": {
                    "addAdmin(address)": "70480275",
                    "addAuditor(address)": "e429cef1",
                    "addOrganization(address)": "d68287df",
                    "addVotersToWhitelist(uint256,address[])": "beba796a",
                    "assignAuditorToPoll(uint256,address)": "c622b708",
                    "computeWinner(uint256)": "879cbc30",
                    "createPoll(string,address[],string[],address[],uint8,uint256,uint256,uint256)": "105a5917",
                    "deletePoll(uint256)": "1f35b51d",
                    "finalizePoll(uint256)": "56597e4f",
                    "getAllPolls()": "32b633fa",
                    "getPollDetails(uint256)": "9a0040e4",
                    "getPollsByOrg(address)": "63bc7a82",
                    "getUserRole(address)": "27820851",
                    "getVotes(uint256)": "ff981099",
                    "hasUserVoted(uint256,address)": "dc296ae1",
                    "hasVoted(uint256,address)": "43859632",
                    "isAdmin(address)": "24d7806c",
                    "isAllowedVoter(uint256,address)": "e26711e0",
                    "isAuditor(address)": "49b90557",
                    "isAuditorForPoll(uint256,address)": "d9c4fb02",
                    "isOrganization(address)": "b1ce8eab",
                    "isPollAuditor(uint256,address)": "480cd55e",
                    "owner()": "8da5cb5b",
                    "pollCount()": "9207891d",
                    "pollOrganization(uint256)": "6b826850",
                    "removeAdmin(address)": "1785f53c",
                    "removeAuditor(address)": "e6116cfd",
                    "removeAuditorFromPoll(uint256,address)": "9d16e16b",
                    "removeOrganization(address)": "6ff2c610",
                    "vote(uint256,uint256[])": "7055d368"
                }
            }
        }
    }
}